:030000000218974C
:0C189700787FE4F6D8FD7581650218DE4C
:031F1800DFFE22C7
:101DE800D3EF9400EE940040147D6E7C00ED1D70DE
:0D1DF800011CED4C70F7EF1F70E61E80E33C
:011E050022BA
:101E5B00D2B27F02121F18C2B27F147E00121DE88D
:071E6B00D2B27F1E021F1816
:101E2400E4FEFD30B2FD7F08121F18EE25E0FE30FF
:0C1E3400B2010E20B2FD0DBD08E9AF06A2
:011E4000227F
:101B5500121E5B20B25330B2FD7F28121F18121ED1
:101B6500248F41121E24A907121E24AC07121E241D
:101B7500AB07121E248F427F19121F18E9FFE5419A
:101B85002FFFE433FEEC7583002FFFE5833EFEEB6C
:101B95002FFFE5833EFEE542B5070EE583B5060951
:091BA500854129892B8C2A8B2C27
:011BAE002214
:1009F6000003050911FF118905C300E000F000F8A6
:100A0600000000000000004428FF11AA4400000076
:100A160000000000000000000000000000000000D0
:100A260000000000000000000000000000000000C0
:100A360000000000000000000000000000000000B0
:100A4600000000000000000000008301384482928C
:100A560092740183000000000000007C44FF017DC9
:100A66007D7D017D7D7D7D017D7D7D7D7D01FF001F
:100A7600000000000001000100010001000100016A
:100A8600000000000000000000010100000000005E
:100A96000000000000000000000000000000000050
:100AA6000000000000000000000000000000000040
:100AB6000000000000000000000000000000000030
:100AC600000000000000000000000101000000001E
:100AD600000001010000000000000000000101010B
:100AE60001010101010101010101010101010100F1
:100AF60000000000000000000000000000000000F0
:100B06000000000000000000000000003F3F03035B
:100B1600F31311111111111101F11161810101017B
:100B2600816111F1010101014141F101010101015F
:100B3600C1211111111121C1010101014141F1012F
:100B46000101010101010101011111111111D3333B
:100B560003033F3F0000000000000000000000000B
:100B6600000000000000000000000000000000007F
:100B7600000000000000000000000000000000006F
:100B8600000000000000000000000000E0E000009F
:100B96007F01010101010100007F00000106180626
:100BA6000100007F0000000040407F404000000040
:100BB6001F2040404040201F0000000040407F4072
:100BC6004000000000600000000040300C03000000
:100BD6000000E0E00000000000000000000000004F
:100BE60000000000000000000000000000000000FF
:100BF60000000000000000000000000000000000EF
:100C060000000000000000000000000007070606C4
:100C1600060604040484444444840404844444448A
:100C26008404040484C404040404844444448404FE
:100C360004040404844444448404040404048444EE
:100C4600444484040484444444840404040406069A
:100C56000606070700000000000000000000000074
:100C6600000000000000000000000000000000007E
:100C7600000000000000000000000000000000006E
:100C8600000000000000000000000000000000005E
:100C96000000000000101814121100000F101010B0
:100CA6000F000000101F10000000081012120D00A7
:100CB600001800000D1212120D0000180000101886
:100CC6001412110000101814121100000000000088
:100CD600000000000000000000000000000000000E
:100CE60000000000000000000000000000000000FE
:100CF60000000000000000000000000000000000EE
:100D060000000000000000000000000000000000DD
:100D160000000000000000000000000000000000CD
:100D260000000000000000000000000080808080BD
:100D360080808080000000000000000000000000AD
:100D4600000000000000000000000000000000009D
:100D5600000000000000000000000000000000008D
:100D6600000000000000000000000000000000007D
:100D7600007F030C300C037F0000385454580000E9
:100D86007C04047800003C40407C00000000000029
:100D9600000000000000000000000000000000004D
:100DA600000000000000000000000000FFAAAAAA40
:100DB600280800FF000000000000000000000000FE
:100DC600000000000000000000000000000000001D
:100DD6000000000000000000007F030C300C037FC1
:100DE6000000264949493200007F020408107F00AE
:100DF6000003050911FF118905C300E000F000F8A2
:100E0600000000000000004428FF11AA4400000072
:100E160000000000000000000000000000000000CC
:100E260000000000000000000000000000000000BC
:100E360000000000000000000000000000000000AC
:100E46000000000000000000000083013844829288
:100E560092740183000000000000007C44FF017DC5
:100E66007D7D7D017D7D7D7D017D7D7D7D01FF001B
:100E76000000000000010001000100010001000166
:100E8600000000000000000000010100000000005A
:100E9600000000000000000000000000000000004C
:100EA600000000000000000000000000000000003C
:100EB600000000000000000000000000000000002C
:100EC600000000000000000000000101000000001A
:100ED6000000010100000000000000000001010107
:100EE60001010101010101010101010101010100ED
:100EF60000000000000000000000000000000000EC
:100F0600000000000000000000000000000000F8E3
:100F16000808080808080800F81860800000008023
:100F26006018F80000002020F8000000000000E033
:100F3600100808080810E00000002020F800000053
:100F46000000000000000000000808080808886883
:100F56001800000000000000000000000000000073
:100F6600000000000000000000000000000000007B
:100F7600000000000000000000000000000000006B
:100F86000000000000000000000000000000007FDC
:100F960001010101010100007F00000106180601A0
:100FA60000007F00000040407F4040000000001F1E
:100FB6002040404040201F00000040407F4040004D
:100FC600000000006000000000000060180601003C
:100FD600000000000000000000000000000000000B
:100FE60000000000000000000000000000000000FB
:100FF60000000000000000000000000000000000EB
:1010060000000000000000000000000000000000DA
:10101600000000000040202020C00000E02020202A
:10102600E000000040E00000000060202020E0001A
:1010360000000000E0202020E0000000000040202A
:101046002020C0000040202020C00000000000003A
:10105600000000000000000000000000000000008A
:10106600000000000000000000000000000000007A
:10107600000000000000000000000000000000006A
:10108600000000000000000000000000000000005A
:1010960000000000000C0A0A090C00000F080808EE
:1010A6000F000000080F080000000C0809090E00D8
:1010B600000C00000F0909090F00000C00000C0AC3
:1010C6000A090C00000C0A0A090C000000000000C6
:1010D600000000000000000000000000000000000A
:1010E60000000000000000000000000000000000FA
:1010F60000000000000000000000000000000000EA
:1011060000000000000000000000000000000000D9
:1011160000000000000000000000000000000000C9
:1011260000000000000000000000000080808080B9
:1011360080808080000000000000000000000000A9
:101146000000000000000000000000000000000099
:101156000000000000000000000000000000000089
:101166000000000000000000000000000000000079
:10117600007F030C300C037F0000385454580000E5
:101186007C04047800003C40407C00000000000025
:101196000000000000000000000000000000000049
:1011A600000000000000000000000000FFAAAAAA3C
:1011B600280800FF000000000000000000000000FA
:1011C6000000000000000000000000000000000019
:1011D6000000000000000000007F030C300C037FBD
:1011E6000000264949493200007F020408107F00AA
:10167700121753121D7E7B04E4FDFF121C907B059D
:10168700E4FD7F10121C907B3AE4FD7F20121A8D37
:101697007B2DE4FD7F30121A8D7B2DE4FD7F381200
:1016A7001A8D7B3AE4FD7F40121A8D7B2DE4FD7F76
:1016B70048121A8D7B2DE4FD7F50121A8D7B3AE478
:1016C700FD7F58121A8D7B2DE4FD7F60121A8D7BEA
:1016D7002DE4FD7F68121A8DE4FB7D03FF121C9039
:1016E7007B017D037F10121C907B3A7D037F2012C4
:1016F7001A8D7B2D7D037F30121A8D7B2D7D037F05
:1017070038121A8D7B067D037F48121C907B027D61
:1017170006E4FF121C907B037D067F10121C907B52
:101727003A7D067F20121A8D7B2D7D067F30121A97
:101737008D7B2D7D067F38121A8D7B527D067F4863
:0C174700121A8D7B487D067F50021A8D1F
:1011F600E561706AE516B40106E4F5160214A7E582
:1012060019FB7A00754401754510E4FD7F30121A0A
:1012160019E51AFB7A00754401754510E4FD7F381F
:10122600121A19E51BFB7A00754401754510E4FD99
:101236007F48121A19E51CFB7A00754401754510A2
:10124600E4FD7F50121A19E51DFB7A0075440175FD
:101256004510E4FD7F60121A19E51E021443E5618C
:10126600640160030213010552E55270020551C381
:101276009432E55194004005E4F551F552D3E55218
:101286009419E55194005026E521FB7A0075440136
:10129600754510E4FD7F30121A19E522FB7A0075B8
:1012A6004401754510E4FD7F38121A1980127B201F
:1012B600E4FD7F30121A8D7B20E4FD7F38121A8DF3
:1012C600E523FB7A00754401754510E4FD7F48125D
:1012D6001A19E524FB7A00754401754510E4FD7F73
:1012E60050121A19E525FB7A00754401754510E47C
:1012F600FD7F60121A19E526021443E56164026057
:10130600030213BD0554E55470020553C39432E538
:101316005394004005E4F553F554D3E5549419E588
:10132600539400E521FB7A0050457544017545103C
:10133600E4FD7F30121A19E522FB7A007544017527
:101346004510E4FD7F38121A19E523FB7A0075442F
:1013560001754510E4FD7F48121A19E524FB7A0051
:10136600754401754510E4FD7F50121A19803175D8
:101376004401754510E4FD7F30121A19E522FB7A07
:1013860000754401754510E4FD7F38121A197B205B
:10139600E4FD7F48121A8D7B20E4FD7F50121A8DE2
:1013A600E525FB7A00754401754510E4FD7F601262
:1013B6001A19E526021443E561640360030214A7C3
:1013C6000556E55670020555C39432E5559400401E
:1013D60005E4F555F556D3E5569419E5559400E51B
:1013E60021FB7A005066754401754510E4FD7F3097
:1013F600121A19E522FB7A00754401754510E4FDC1
:101406007F38121A19E523FB7A00754401754510D9
:10141600E4FD7F48121A19E524FB7A00754401752C
:101426004510E4FD7F50121A19E525FB7A00754434
:1014360001754510E4FD7F60121A19E526FB7A0056
:10144600754401754510E4FD7F6880527544017549
:101456004510E4FD7F30121A19E522FB7A00754427
:1014660001754510E4FD7F38121A197B20E4FD7FD3
:1014760060121A8D7B20E4FD7F68121A8DE523FB2E
:101486007A00754401754510E4FD7F48121A19E586
:1014960024FB7A00754401754510E4FD7F50121A4D
:1014A60019E5116024E514FB7A00754401754510B1
:1014B6007D037F30121A19E515FB7A007544017514
:1014C60045107D037F38121A19E5106024E512FBDA
:1014D6007A007544017545107D067F30121A19E5AC
:1014E60013FB7A007544017545107D067F38121A84
:0114F60019DC
:0114F70022D2
:0E1EF50081838587898B8D80828486888A8C84
:091EE700074A0000120705061667
:101D4900C2B500C29500D2B500E4FEEF1392B4EF1C
:101D5900C313FFD29500C295000EBE08EEE4FEED56
:101D69001392B4EDC313FDD29500C295000EBE08BF
:041D7900EEC2B50001
:011D7D002243
:101BFC00C2B500C29500D2B500E4FDEF1392B4EF6C
:101C0C00C313FFD29500C295000DBD08EE00E4FD94
:101C1C00A2B4E433FFC43333335480FCEEC3134C0F
:101C2C00FED29500C295000DBD08E5C2B500D29557
:091C3C0000C2B400D2B400AF06EE
:011C4500227C
:101DA500E4FD7F8E121D49E4FCEC901EFC93FF744C
:101DB5004A2CF8E6FD121D490CBC07ED7D807F8E8F
:031DC500021D49B3
:101E8900E4FBEB901EF593FF121BFC744A2BF8A69A
:051E9900070BBB07ED83
:011E9E002221
:101ED700438901758CD8758AF0D28CD2A9D2AF22EA
:0E1F0300438910758DD8758BF0D28CD2AF2229
:101BAF00AB8A7A00D3EF9400EE64809480403DA915
:101BBF008AE97C00FD9BEA6480F8748098400AED06
:101BCF009BF563EC9AF5628014C3E49BF582740174
:101BDF009AF583E5822DF563E5833CF562C3EF95B6
:0C1BEF0063FFEE9562FEAA04AB0580B80F
:011BFB0022C7
:021E9F008F4072
:101EA100E4FFAE401540EE600A1FEF60F500000050
:031EB1000080F6B8
:011EB400220B
:101E72007DBC7C02ED1D70011CED4C70F7EF1F70F4
:061E8200011E144E70EA7F
:011E88002237
:101E0600C280121677121DA57FC8121E9F1211F6E8
:0E1E160012199F121C461219231214F880EFA5
:03001B00021F11B0
:071F1100758CD8758AF032CF
:10001E000000000000000000002F0000000007009C
:10002E00070000147F147F1400242A7F2A12006216
:10003E0064081323003649552250000005030000C2
:10004E0000001C224100000041221C000014083E4A
:10005E0008140008083E0808000000A06000000810
:10006E000808080800006060000000201008040264
:10007E00003E5149453E0000427F40000042615122
:10008E004946002141454B31001814127F100027BC
:10009E0045454539003C4A4949300001710905037F
:1000AE0000364949493600064949291E00003636B0
:1000BE000000000056360000000814224100001413
:1000CE0014141414000041221408000201510906F0
:1000DE0000324959513E007C1211127C007F494971
:1000EE004936003E41414122007F4141221C007FA2
:1000FE0049494941007F09090901003E4149497AB0
:10010E00007F0808087F0000417F41000020404129
:10011E003F01007F08142241007F40404040007F95
:10012E00020C027F007F0408107F003E4141413ED9
:10013E00007F09090906003E4151215E007F091921
:10014E0029460046494949310001017F0101003F1E
:10015E004040403F001F2040201F003F4038403F9E
:10016E000063140814630007087008070061514902
:10017E00454300007F41410000552A552A55000095
:10018E0041417F0000040201020400404040404013
:10019E00000001020400002054545478007F4844AB
:1001AE00443800384444442000384444487F0038E2
:1001BE005454541800087E0901020018A4A4A47C0B
:1001CE00007F080404780000447D400000408084D5
:1001DE007D00007F102844000000417F4000007C1D
:1001EE0004180478007C0804047800384444443829
:1001FE0000FC242424180018242418FC007C080475
:10020E00040800485454542000043F444020003C4D
:10021E004040207C001C2040201C003C4030403CD4
:10022E00004428102844001CA0A0A07C0044645464
:10023E004C441414141414140000000000000000A8
:10024E000000000000000000000000F800000000A8
:10025E00000000333000000000100C06100C0600E9
:10026E00000000000000000040C07840C078400050
:10027E00043F04043F040400007088FC08300000B2
:10028E00001820FF211E0000F008F000E01800000A
:10029E0000211C031E211E0000F0088870000000C3
:1002AE001E2123241927211010160E000000000015
:1002BE000000000000000000000000E01804020032
:1002CE00000000071820400000020418E0000000A3
:1002DE000040201807000000404080F080404000A1
:1002EE000202010F01020200000000F000000000F7
:1002FE000101011F010101000000000000000000CB
:10030E0080B070000000000000000000000000003F
:10031E0000010101010101010000000000000000C8
:10032E000030300000000000000000008060180463
:10033E00006018060100000000E010080810E00040
:10034E00000F102020100F00001010F80000000009
:10035E000020203F20200000007008080888700050
:10036E0000302824222130000030088888483000D0
:10037E000018202020110E000000C02010F80000F0
:10038E0000070424243F240000F808888808080089
:10039E000019212020110E0000E01088881800009E
:1003AE00000F112020110E0000380808C838080070
:1003BE000000003F000000000070880808887000F0
:1003CE00001C222121221C0000E010080810E00071
:1003DE000000312222110F00000000C0C0000000FA
:1003EE00000000303000000000000080000000001F
:1003FE000000806000000000000080402010080017
:10040E0000010204081020004040404040404000DF
:10041E0004040404040404000008102040800000BA
:10042E000020100804020100007048080808F000BF
:10043E000000003036010000C030C828E810E0008F
:10044E000718272423140B000000C038E00000001A
:10045E00203C23020227382008F888888870000084
:10046E00203F202020110E00C03008080808380058
:10047E00071820202010080008F808080810E000CF
:10048E00203F202020100F0008F88888E808100070
:10049E00203F20202320180008F88888E808100044
:1004AE00203F200003000000C0300808083800007C
:1004BE0007182020221E020008F808000008F8087D
:1004CE00203F210101213F20000808F80808000004
:1004DE000020203F2020000000000808F808080037
:1004EE00C08080807F00000008F888C028180800AF
:1004FE00203F20012638200008F8080000000000E8
:10050E00203F20202020300008F8F800F8F80800DE
:10051E00203F003F003F200008F830C00008F808D8
:10052E00203F200007183F00E01008080810E000E8
:10053E000F10202020100F0008F808080808F000FF
:10054E00203F210101010000E01008080810E00022
:10055E000F18242438504F0008F8888888887000B7
:10056E00203F2000030C3020007088080808380057
:10057E000038202121221C00180808F8080818004D
:10058E000000203F2000000008F808000008F808CE
:10059E00001F202020201F000878880000C838087F
:1005AE00000007380E010000F80800F80008F800F7
:1005BE00033C0700073C0300081868808068180891
:1005CE0020302C03032C30200838C800C83808000F
:1005DE000000203F2000000010080808C83808005E
:1005EE002038262120201800000000FE0202020002
:1005FE000000007F40404000000C30C000000000B2
:10060E00000000010638C00000020202FE000000D9
:10061E00004040407F00000000000402020204007F
:10062E0000000000000000000000000000000000BC
:10063E0080808080808080800002020400000000A4
:10064E00000000000000000000008080808000009C
:10065E000019242222223F2008F80080800000008A
:10066E00003F112020110E0000000080808000004D
:10067E00000E112020201100000000808088F8005C
:10068E00000E112020103F2000008080808000008E
:10069E00001F222222221300008080F088888818F2
:1006AE000020203F202000000000808080808000FD
:1006BE00006B94949493600008F800808080000092
:1006CE00203F210000203F2000809898000000006D
:1006DE000020203F2020000000000080989800009D
:1006EE0000C08080807F000008F8000080808000BD
:1006FE00203F24022D302000000808F800000000E2
:10070E000020203F2020000080808080808080009C
:10071E00203F20003F20003F80800080808000002E
:10072E00203F210000203F200000808080800000BC
:10073E00001F202020201F008080008080000000ED
:10074E0080FFA12020110E0000000080808080001C
:10075E00000E112020A0FF8080808000808080000D
:10076E0020203F212000010000008080808080003A
:10077E000033242424241900008080E080800000AF
:10078E000000001F202000008080000000808000FC
:10079E00001F202020103F2080808000008080805D
:1007AE0000010E30080601008080008000808080ED
:1007BE000F300C030C300F00008080008080800012
:1007CE000020312E0E31200080808000008080803D
:1007DE0080818E70180601000080808080808000ED
:1007EE000021302C2221300000000000807C02020B
:1007FE0000000000003F404000000000FF0000002D
:10080E0000000000FF0000000002027C80000000DB
:10081E000040403F000000000006010102020404F7
:10082E0000000000000000001060028C0000FE922C
:10083E0092929292FE000000000000000000000064
:10084E00000000000000000004047E01407E4242D1
:10085E007E427E42427E400000000000000000000A
:10086E0000000000000000000000FC242424FC25F1
:10087E002624FC24242404000000000000000000B4
:10088E00000000000000000040308F80844C552591
:10089E002525554C808080000000000000000000DF
:1008AE0000000000000000001060028C00FE92921A
:1008BE0092929292FE0000000000000000000000E4
:1008CE00000000000000000004047E014448507F38
:1008DE0040407F50484440000000000000000000EF
:1008EE0000000000000000000000FC242424FC2571
:1008FE002624FC2424240400000000000000000034
:10090E00000000000000000040308F80844C552510
:10091E002525554C8080800000000000000000005E
:10092E00000000000000000000FC848484FC001025
:10093E0010101010FF10100000000000000000004A
:10094E000000000000000000003F1010103F0000EB
:10095E00010640807F000000000000000000000043
:10096E00000000000000000000F8010600F0121266
:10097E0012F2020202FE0000000000000000000061
:10098E00000000000000000000FF0000001F111119
:10099E00111F0040807F00000000000000000000DA
:1009AE000000000000000000060909E6F80C040231
:1009BE0002020202041E00000000000000000000FF
:1009CE000000000000000000000000071F30204063
:1009DE0040404040201000000000000000000000D9
:0809EE00000000000000000001
:101E4100EF4E60157D087C07ED1DAA0470011C4A48
:091E510070F6EF1F70EA1E80E735
:011E5A002265
:101D1000F583E5822CF582E43583F583E493FF7D3A
:011D200001C1
:101D2100ED6004D2938002C293C294E4FEC296EFA6
:101D310030E704D2918002C291D296EF25E0FF0EE6
:071D4100BE08EAD294D29320
:011D48002278
:101DC800AC07ED24B0FFE4FD121D21EC54F0C4541F
:101DD8000F4410FF121D21EC540F4401FF021D2176
:101EB500E4FD7F8D121D217F14121D217FAF021DB0
:011EC50021FB
:101EC600E4FD7F8D121D217F10121D217FAE021DA4
:011ED60021EA
:101D7E00E4FCEC24B0FFE4FD121D21E4FF121D2152
:101D8E007F10121D21E4FB7D01E4FF121D210BBB10
:061D9E0080F50CBC08DC1E
:011DA400221C
:061A8D00AA07A905AF0342
:101A9300E4FCEF24E0FBEAD3947F4004E4FA090971
:101AA300AF02AD01121DC8E4FC75F010EBA42CF5D8
:101AB30082E435F0F583E5822446F582E58334023A
:101AC300121D1A0CBC08E2AF02E904FD121DC8E4A2
:101AD300FC75F010EBA42CF582E435F0F583E58278
:101AE300244EF582E5833402121D1A0CBC08E2224F
:040003008F49A90573
:100007007F017E00AD0119ED6009AD497C00121832
:030017003080F145
:01001A0022C3
:081A19008F408D418A428B438E
:101A2100E4F548F546E546C39544505FC3E5449562
:101A31004614FD7F0A120003AC42AD43CFCDCFCE99
:101A4100CCCE1218427C007D0A1218428D47E5481F
:101A51007020E54414FFE546C39F5016E547700F1B
:101A6100E545C3138546F0A42540FF7B208013750F
:101A71004801E545C3138546F0A42540FFE5472409
:0B1A810030FBAD41121A8D0546809A23
:011A8C002237
:0A1CD3008F578D588B598A5A895B90
:101CDD00E4F55CAB59AA5AA95B855C827583001249
:101CED001803FB601DAD58AF57121A8D7408255798
:101CFD00F557D394784007E4F55705580558055C1A
:021D0D0080D183
:011D0F0022B1
:041C9000AA07A905F1
:101C9400E4F540121DC8E4FC75F040EBA42436F5CD
:101CA40082E5F03408121D1005400CBC10EAAF02A6
:101CB400E904FD121DC8E4FC75F040EBA42456F5BC
:0E1CC40082E5F03408121D1005400CBC10EA39
:011CD20022EF
:041AF3008F368B3867
:101AF700E4F53DF53EE5395407700BE5391313134B
:101B0700541FF53F800AE539131313541F04F53F9B
:101B17008D3FE53FC395395034AD3FAF36121DC8F1
:101B2700AC36ECC395385021AB3AAA3BA93C053EED
:101B3700E53EAE3D7002053D14F5828E8312180313
:0D1B4700FF7D01121D210C80D9053F80C5D6
:011B5400226E
:10175300D2927F647E00121E41C2927F647E001289
:101763001E41D292E4FD7FAE121D21E4FF121D2122
:101773007F10121D217F40121D217F81121D217FA9
:10178300CF121D217FA1121D217FC8121D217FA60B
:10179300121D217FA8121D217F3F121D217FD3120D
:1017A3001D21E4FF121D217FD5121D217F80121DF3
:1017B300217FD9121D217FF1121D217FDA121D21F4
:1017C3007F12121D217FDB121D217F40121D217FFD
:1017D30020121D217F02121D217F8D121D217F14D6
:1017E300121D217FA4121D217FA6121D217FAF127E
:1017F3001D217FAF121D21121D7EE4FDFF021DC8B6
:041EF000025D00008F
:10199F002087047F0180027F00EF25E0FF2086046F
:1019AF007E0180027E00EE4207EF25E0FF208504D6
:1019BF007E0180027E00EE4207E55D704CE55E140D
:1019CF00601114603D24027040EF603D755D00753D
:1019DF005E0122EF602930E105756001801AEF305A
:1019EF00E005755F018011EF30E20D0561AE61EE2C
:1019FF00C394044003E4F561755D00755E0222E453
:091A0F008003EF7004F55DF55E43
:011A180022AB
:101C4600E561702B121E89E54CC4540FF519E54C5D
:101C5600540FF51AE54BC4540FF51BE54B540FF51D
:101C66001CE54AC4540FF51DE54A540FF51E22E53E
:101C760020B40115E4F520851921851A22851B2338
:0A1C8600851C24851D25851E2622DD
:10192300E50E700B121B5585290A852A0B050E053A
:101933000DE50D7002050CAE0CC39464EE940040EB
:101943005AE4F50CF50D121B55852908E508C395D6
:101953000A4008E508950AF5408007C3E50A95089B
:10196300F540E540D39414500985081785080A7596
:101973002801852A09E509C3950B4008E509950B5C
:10198300F5408007C3E50B9509F540E540D3940383
:0B199300500985091885090B75270114
:01199E002226
:1014F800E528B4011AE4F528851740E54075F00A97
:1015080084F512E54075F00A8485F013751001E53D
:1015180027B4011AE4F527851840E54075F00A84D8
:10152800F514E54075F00A8485F015751101E5613B
:10153800B4011C752001E560B40106E4F5600522DC
:1015480022E55F64016003021676F55F152222E545
:10155800616402704DE560B40120E4F5600524AFD4
:1015680024EFC3940A50030216760523AF23EF94A1
:10157800064003E4F523E4F52422E55F64016003F3
:10158800021676F55F1524AF24EFC394FF500302CB
:1015980016761523AF23EF94FF40037523057524B2
:1015A8000922E56164037050750F01E560B40120FC
:1015B800E4F5600526AF26EFC3940A5003021676B9
:1015C8000525AF25EF94064003E4F525E4F526222A
:1015D800E55F64016003021676F55F1526AF26EF16
:1015E800C394FF50030216761525AF25EF94FF40EC
:1015F8000375250575250922E50F64017070F50F3F
:10160800E525C454F04526F541E523C454F04524A6
:10161800F542E521C454F04522F543E4FD7F8E12DE
:101628001D49901EFCE493FFAD41121D49901EFD1B
:10163800E493FFAD42121D49901EFEE493FFAD43B3
:10164800121D49901EFFE493FFAD4D121D49901FD6
:1016580000E493FFAD4E121D49901F01E493FFADC6
:0E1668004F121D497D807F8E121D497516019F
:011676002251
:1018A300021E06E493A3F8E493A34003F68001F237
:1018B30008DFF48029E493A3F85407240CC8C33346
:1018C300C4540F4420C8834004F456800146F6DF15
:1018D300E4800B0102040810204080901EE7E47EA0
:1018E300019360BCA3FF543F30E509541FFEE4930A
:1018F300A360010ECF54C025E060A840B8E493A3D1
:10190300FAE493A3F8E493A3C8C582C8CAC583CAFB
:10191300F0A3C8C582C8CAC583CADFE9DEE780BEB3
:011EF40000ED
:10180300BB010CE58229F582E5833AF583E022509A
:1018130006E92582F8E622BBFE06E92582F8E222E4
:0D182300E58229F582E5833AF583E49322FE
:10183000EF8DF0A4A8F0CF8CF0A428CE8DF0A42ECC
:02184000FE2286
:10184200BC000BBE0029EF8DF084FFADF022E4CC8A
:10185200F875F008EF2FFFEE33FEEC33FCEE9DEC53
:10186200984005FCEE9DFE0FD5F0E9E4CEFD22ED99
:10187200F8F5F0EE8420D21CFEADF075F008EF2FE3
:10188200FFED33FD4007985006D5F0F222C398FDD4
:051892000FD5F0EA2271
:00000001FF
