:030000000218DB08
:0C18DB00787FE4F6D8FD758166021922C2
:031F5C00DFFE2283
:101E2F00D3EF9400EE940040147D6E7C00ED1D7096
:0D1E3F00011CED4C70F7EF1F70E61E80E3F4
:011E4C002273
:101E9F00D2B27F02121F5CC2B27F147E00121E2FBD
:071EAF00D2B27F1E021F5C8E
:101E4D00E4FEFD30B2FD7F08121F5CEE25E0FE3092
:0C1E5D00B2010E20B2FD0DBD08E9AF0679
:011E69002256
:101B9900121E9F20B25330B2FD7F28121F5C121E05
:101BA9004D8F42121E4DA907121E4DAC07121E4D34
:101BB900AB07121E4D8F437F19121F5CE9FFE542E7
:101BC9002FFFE433FEEC7583002FFFE5833EFEEB28
:101BD9002FFFE5833EFEE543B5070EE583B506090C
:091BE90085422A892C8C2B8B2DDE
:011BF20022D0
:1009F6000003050911FF118905C300E000F000F8A6
:100A0600000000000000004428FF11AA4400000076
:100A160000000000000000000000000000000000D0
:100A260000000000000000000000000000000000C0
:100A360000000000000000000000000000000000B0
:100A4600000000000000000000008301384482928C
:100A560092740183000000000000007C44FF017DC9
:100A66007D7D017D7D7D7D017D7D7D7D7D01FF001F
:100A7600000000000001000100010001000100016A
:100A8600000000000000000000010100000000005E
:100A96000000000000000000000000000000000050
:100AA6000000000000000000000000000000000040
:100AB6000000000000000000000000000000000030
:100AC600000000000000000000000101000000001E
:100AD600000001010000000000000000000101010B
:100AE60001010101010101010101010101010100F1
:100AF60000000000000000000000000000000000F0
:100B06000000000000000000000000003F3F03035B
:100B1600F31311111111111101F11161810101017B
:100B2600816111F1010101014141F101010101015F
:100B3600C1211111111121C1010101014141F1012F
:100B46000101010101010101011111111111D3333B
:100B560003033F3F0000000000000000000000000B
:100B6600000000000000000000000000000000007F
:100B7600000000000000000000000000000000006F
:100B8600000000000000000000000000E0E000009F
:100B96007F01010101010100007F00000106180626
:100BA6000100007F0000000040407F404000000040
:100BB6001F2040404040201F0000000040407F4072
:100BC6004000000000600000000040300C03000000
:100BD6000000E0E00000000000000000000000004F
:100BE60000000000000000000000000000000000FF
:100BF60000000000000000000000000000000000EF
:100C060000000000000000000000000007070606C4
:100C1600060604040484444444840404844444448A
:100C26008404040484C404040404844444448404FE
:100C360004040404844444448404040404048444EE
:100C4600444484040484444444840404040406069A
:100C56000606070700000000000000000000000074
:100C6600000000000000000000000000000000007E
:100C7600000000000000000000000000000000006E
:100C8600000000000000000000000000000000005E
:100C96000000000000101814121100000F101010B0
:100CA6000F000000101F10000000081012120D00A7
:100CB600001800000D1212120D0000180000101886
:100CC6001412110000101814121100000000000088
:100CD600000000000000000000000000000000000E
:100CE60000000000000000000000000000000000FE
:100CF60000000000000000000000000000000000EE
:100D060000000000000000000000000000000000DD
:100D160000000000000000000000000000000000CD
:100D260000000000000000000000000080808080BD
:100D360080808080000000000000000000000000AD
:100D4600000000000000000000000000000000009D
:100D5600000000000000000000000000000000008D
:100D6600000000000000000000000000000000007D
:100D7600007F030C300C037F0000385454580000E9
:100D86007C04047800003C40407C00000000000029
:100D9600000000000000000000000000000000004D
:100DA600000000000000000000000000FFAAAAAA40
:100DB600280800FF000000000000000000000000FE
:100DC600000000000000000000000000000000001D
:100DD6000000000000000000007F030C300C037FC1
:100DE6000000264949493200007F020408107F00AE
:100DF6000003050911FF118905C300E000F000F8A2
:100E0600000000000000004428FF11AA4400000072
:100E160000000000000000000000000000000000CC
:100E260000000000000000000000000000000000BC
:100E360000000000000000000000000000000000AC
:100E46000000000000000000000083013844829288
:100E560092740183000000000000007C44FF017DC5
:100E66007D7D7D017D7D7D7D017D7D7D7D01FF001B
:100E76000000000000010001000100010001000166
:100E8600000000000000000000010100000000005A
:100E9600000000000000000000000000000000004C
:100EA600000000000000000000000000000000003C
:100EB600000000000000000000000000000000002C
:100EC600000000000000000000000101000000001A
:100ED6000000010100000000000000000001010107
:100EE60001010101010101010101010101010100ED
:100EF60000000000000000000000000000000000EC
:100F0600000000000000000000000000000000F8E3
:100F16000808080808080800F81860800000008023
:100F26006018F80000002020F8000000000000E033
:100F3600100808080810E00000002020F800000053
:100F46000000000000000000000808080808886883
:100F56001800000000000000000000000000000073
:100F6600000000000000000000000000000000007B
:100F7600000000000000000000000000000000006B
:100F86000000000000000000000000000000007FDC
:100F960001010101010100007F00000106180601A0
:100FA60000007F00000040407F4040000000001F1E
:100FB6002040404040201F00000040407F4040004D
:100FC600000000006000000000000060180601003C
:100FD600000000000000000000000000000000000B
:100FE60000000000000000000000000000000000FB
:100FF60000000000000000000000000000000000EB
:1010060000000000000000000000000000000000DA
:10101600000000000040202020C00000E02020202A
:10102600E000000040E00000000060202020E0001A
:1010360000000000E0202020E0000000000040202A
:101046002020C0000040202020C00000000000003A
:10105600000000000000000000000000000000008A
:10106600000000000000000000000000000000007A
:10107600000000000000000000000000000000006A
:10108600000000000000000000000000000000005A
:1010960000000000000C0A0A090C00000F080808EE
:1010A6000F000000080F080000000C0809090E00D8
:1010B600000C00000F0909090F00000C00000C0AC3
:1010C6000A090C00000C0A0A090C000000000000C6
:1010D600000000000000000000000000000000000A
:1010E60000000000000000000000000000000000FA
:1010F60000000000000000000000000000000000EA
:1011060000000000000000000000000000000000D9
:1011160000000000000000000000000000000000C9
:1011260000000000000000000000000080808080B9
:1011360080808080000000000000000000000000A9
:101146000000000000000000000000000000000099
:101156000000000000000000000000000000000089
:101166000000000000000000000000000000000079
:10117600007F030C300C037F0000385454580000E5
:101186007C04047800003C40407C00000000000025
:101196000000000000000000000000000000000049
:1011A600000000000000000000000000FFAAAAAA3C
:1011B600280800FF000000000000000000000000FA
:1011C6000000000000000000000000000000000019
:1011D6000000000000000000007F030C300C037FBD
:1011E6000000264949493200007F020408107F00AA
:1016BB00121797121DC57B04E4FDFF121CD77B0587
:1016CB00E4FD7F10121CD77B3AE4FD7F20121AD168
:1016DB007B2DE4FD7F30121AD17B2DE4FD7F381278
:1016EB001AD17B3AE4FD7F40121AD17B2DE4FD7FAA
:1016FB0048121AD17B2DE4FD7F50121AD17B3AE4AC
:10170B00FD7F58121AD17B2DE4FD7F60121AD17B1D
:10171B002DE4FD7F68121AD1E4FB7D03FF121CD769
:10172B007B017D037F10121CD77B3A7D037F201238
:10173B001AD17B2D7D037F30121AD17B2D7D037F38
:10174B0038121AD17B067D037F48121CD77B027D92
:10175B0006E4FF121CD77B037D067F10121CD77B80
:10176B003A7D067F20121AD17B2D7D067F30121A0F
:10177B00D17B2D7D067F38121AD17B527D067F4897
:0C178B00121AD17B487D067F50021AD153
:1011F600E562706AE516B40106E4F5160214A7E581
:1012060019FB7A00754501754610E4FD7F30121A08
:101216005DE51AFB7A00754501754610E4FD7F38D9
:10122600121A5DE51BFB7A00754501754610E4FD53
:101236007F48121A5DE51CFB7A007545017546105C
:10124600E4FD7F50121A5DE51DFB7A0075450175B8
:101256004610E4FD7F60121A5DE51E021443E56246
:10126600640160030213010553E55370020552C37E
:101276009432E55294004005E4F552F553D3E55314
:101286009419E55294005026E522FB7A0075450133
:10129600754610E4FD7F30121A5DE523FB7A007572
:1012A6004501754610E4FD7F38121A5D80127B20D9
:1012B600E4FD7F30121AD17B20E4FD7F38121AD16B
:1012C600E524FB7A00754501754610E4FD7F48125A
:1012D6001A5DE525FB7A00754501754610E4FD7F2C
:1012E60050121A5DE526FB7A00754501754610E435
:1012F600FD7F60121A5DE527021443E56264026011
:10130600030213BD0555E55570020554C39432E535
:101316005494004005E4F554F555D3E5559419E584
:10132600549400E522FB7A00504575450175461038
:10133600E4FD7F30121A5DE523FB7A0075450175E1
:101346004610E4FD7F38121A5DE524FB7A007545E8
:1013560001754610E4FD7F48121A5DE525FB7A000B
:10136600754501754610E4FD7F50121A5D80317592
:101376004501754610E4FD7F30121A5DE523FB7AC0
:1013860000754501754610E4FD7F38121A5D7B2015
:10139600E4FD7F48121AD17B20E4FD7F50121AD15A
:1013A600E526FB7A00754501754610E4FD7F60125F
:1013B6001A5DE527021443E562640360030214A77D
:1013C6000557E55770020556C39432E5569400401A
:1013D60005E4F556F557D3E5579419E5569400E517
:1013E60022FB7A005066754501754610E4FD7F3094
:1013F600121A5DE523FB7A00754501754610E4FD7A
:101406007F38121A5DE524FB7A0075450175461092
:10141600E4FD7F48121A5DE525FB7A0075450175E6
:101426004610E4FD7F50121A5DE526FB7A007545ED
:1014360001754610E4FD7F60121A5DE527FB7A0010
:10144600754501754610E4FD7F6880527545017546
:101456004610E4FD7F30121A5DE523FB7A007545E0
:1014660001754610E4FD7F38121A5D7B20E4FD7F8E
:1014760060121AD17B20E4FD7F68121AD1E524FBA5
:101486007A00754501754610E4FD7F48121A5DE540
:1014960025FB7A00754501754610E4FD7F50121A4A
:1014A6005DE5116024E514FB7A007545017546106B
:1014B6007D037F30121A5DE515FB7A0075450175CF
:1014C60046107D037F38121A5DE5106024E512FB95
:1014D6007A007545017546107D067F30121A5DE566
:1014E60013FB7A007545017546107D067F38121A82
:0114F6005D98
:0114F70022D2
:0E1F390081838587898B8D80828486888A8C3F
:091F2B00074B0000120705061621
:101D9000C2B500C29500D2B500E4FEEF1392B4EFD5
:101DA000C313FFD29500C295000EBE08EEE4FEED0F
:101DB0001392B4EDC313FDD29500C295000EBE0878
:041DC000EEC2B500BA
:011DC40022FC
:101C8D00C2B500C29500D2B500E4FDEF1392B4EFDA
:101C9D00C313FFD29500C295000DBD08EE00E4FD03
:101CAD00A2B4E433FFC43333335480FCEEC3134C7E
:101CBD00FED29500C295000DBD08E5C2B500D295C6
:091CCD0000C2B400D2B400AF065D
:011CD60022EB
:101DEC00E4FD7F8E121D90E4FCEC901F4093FF7479
:101DFC004B2CF8E6FD121D900CBC07ED7D807F8E00
:031E0C00021D9024
:101ECD00E4FBEB901F3993FF121C8D744B2BF8A67E
:051EDD00070BBB07ED3F
:011EE20022DD
:101F1B00438901758CD8758AF0D28CD2A9D2AF22A5
:0E1F4700438910758DD8758BF0D28CD2AF22E5
:101BF300AB8A7A00D3EF9400EE64809480403DA9D1
:101C03008AE97C00FD9BEA6480F8748098400AEDC1
:101C13009BF564EC9AF5638014C3E49BF58274012D
:101C23009AF583E5822DF564E5833CF563C3EF956F
:0C1C330064FFEE9563FEAA04AB0580B8C8
:011C3F002282
:021EE3008F412D
:101EE500E4FFAE411541EE600A1FEF60F50000000A
:031EF5000080F674
:011EF80022C7
:101EB6007DBC7C02ED1D70011CED4C70F7EF1F70B0
:061EC600011E144E70EA3B
:011ECC0022F3
:101E6A00C2801216BB7FC8121EE31211F61219E3C2
:0B1E7A00121C401219671214F880EFD0
:03001B00021F556C
:071F5500758CD8758AF0328B
:10001E000000000000000000002F0000000007009C
:10002E00070000147F147F1400242A7F2A12006216
:10003E0064081323003649552250000005030000C2
:10004E0000001C224100000041221C000014083E4A
:10005E0008140008083E0808000000A06000000810
:10006E000808080800006060000000201008040264
:10007E00003E5149453E0000427F40000042615122
:10008E004946002141454B31001814127F100027BC
:10009E0045454539003C4A4949300001710905037F
:1000AE0000364949493600064949291E00003636B0
:1000BE000000000056360000000814224100001413
:1000CE0014141414000041221408000201510906F0
:1000DE0000324959513E007C1211127C007F494971
:1000EE004936003E41414122007F4141221C007FA2
:1000FE0049494941007F09090901003E4149497AB0
:10010E00007F0808087F0000417F41000020404129
:10011E003F01007F08142241007F40404040007F95
:10012E00020C027F007F0408107F003E4141413ED9
:10013E00007F09090906003E4151215E007F091921
:10014E0029460046494949310001017F0101003F1E
:10015E004040403F001F2040201F003F4038403F9E
:10016E000063140814630007087008070061514902
:10017E00454300007F41410000552A552A55000095
:10018E0041417F0000040201020400404040404013
:10019E00000001020400002054545478007F4844AB
:1001AE00443800384444442000384444487F0038E2
:1001BE005454541800087E0901020018A4A4A47C0B
:1001CE00007F080404780000447D400000408084D5
:1001DE007D00007F102844000000417F4000007C1D
:1001EE0004180478007C0804047800384444443829
:1001FE0000FC242424180018242418FC007C080475
:10020E00040800485454542000043F444020003C4D
:10021E004040207C001C2040201C003C4030403CD4
:10022E00004428102844001CA0A0A07C0044645464
:10023E004C441414141414140000000000000000A8
:10024E000000000000000000000000F800000000A8
:10025E00000000333000000000100C06100C0600E9
:10026E00000000000000000040C07840C078400050
:10027E00043F04043F040400007088FC08300000B2
:10028E00001820FF211E0000F008F000E01800000A
:10029E0000211C031E211E0000F0088870000000C3
:1002AE001E2123241927211010160E000000000015
:1002BE000000000000000000000000E01804020032
:1002CE00000000071820400000020418E0000000A3
:1002DE000040201807000000404080F080404000A1
:1002EE000202010F01020200000000F000000000F7
:1002FE000101011F010101000000000000000000CB
:10030E0080B070000000000000000000000000003F
:10031E0000010101010101010000000000000000C8
:10032E000030300000000000000000008060180463
:10033E00006018060100000000E010080810E00040
:10034E00000F102020100F00001010F80000000009
:10035E000020203F20200000007008080888700050
:10036E0000302824222130000030088888483000D0
:10037E000018202020110E000000C02010F80000F0
:10038E0000070424243F240000F808888808080089
:10039E000019212020110E0000E01088881800009E
:1003AE00000F112020110E0000380808C838080070
:1003BE000000003F000000000070880808887000F0
:1003CE00001C222121221C0000E010080810E00071
:1003DE000000312222110F00000000C0C0000000FA
:1003EE00000000303000000000000080000000001F
:1003FE000000806000000000000080402010080017
:10040E0000010204081020004040404040404000DF
:10041E0004040404040404000008102040800000BA
:10042E000020100804020100007048080808F000BF
:10043E000000003036010000C030C828E810E0008F
:10044E000718272423140B000000C038E00000001A
:10045E00203C23020227382008F888888870000084
:10046E00203F202020110E00C03008080808380058
:10047E00071820202010080008F808080810E000CF
:10048E00203F202020100F0008F88888E808100070
:10049E00203F20202320180008F88888E808100044
:1004AE00203F200003000000C0300808083800007C
:1004BE0007182020221E020008F808000008F8087D
:1004CE00203F210101213F20000808F80808000004
:1004DE000020203F2020000000000808F808080037
:1004EE00C08080807F00000008F888C028180800AF
:1004FE00203F20012638200008F8080000000000E8
:10050E00203F20202020300008F8F800F8F80800DE
:10051E00203F003F003F200008F830C00008F808D8
:10052E00203F200007183F00E01008080810E000E8
:10053E000F10202020100F0008F808080808F000FF
:10054E00203F210101010000E01008080810E00022
:10055E000F18242438504F0008F8888888887000B7
:10056E00203F2000030C3020007088080808380057
:10057E000038202121221C00180808F8080818004D
:10058E000000203F2000000008F808000008F808CE
:10059E00001F202020201F000878880000C838087F
:1005AE00000007380E010000F80800F80008F800F7
:1005BE00033C0700073C0300081868808068180891
:1005CE0020302C03032C30200838C800C83808000F
:1005DE000000203F2000000010080808C83808005E
:1005EE002038262120201800000000FE0202020002
:1005FE000000007F40404000000C30C000000000B2
:10060E00000000010638C00000020202FE000000D9
:10061E00004040407F00000000000402020204007F
:10062E0000000000000000000000000000000000BC
:10063E0080808080808080800002020400000000A4
:10064E00000000000000000000008080808000009C
:10065E000019242222223F2008F80080800000008A
:10066E00003F112020110E0000000080808000004D
:10067E00000E112020201100000000808088F8005C
:10068E00000E112020103F2000008080808000008E
:10069E00001F222222221300008080F088888818F2
:1006AE000020203F202000000000808080808000FD
:1006BE00006B94949493600008F800808080000092
:1006CE00203F210000203F2000809898000000006D
:1006DE000020203F2020000000000080989800009D
:1006EE0000C08080807F000008F8000080808000BD
:1006FE00203F24022D302000000808F800000000E2
:10070E000020203F2020000080808080808080009C
:10071E00203F20003F20003F80800080808000002E
:10072E00203F210000203F200000808080800000BC
:10073E00001F202020201F008080008080000000ED
:10074E0080FFA12020110E0000000080808080001C
:10075E00000E112020A0FF8080808000808080000D
:10076E0020203F212000010000008080808080003A
:10077E000033242424241900008080E080800000AF
:10078E000000001F202000008080000000808000FC
:10079E00001F202020103F2080808000008080805D
:1007AE0000010E30080601008080008000808080ED
:1007BE000F300C030C300F00008080008080800012
:1007CE000020312E0E31200080808000008080803D
:1007DE0080818E70180601000080808080808000ED
:1007EE000021302C2221300000000000807C02020B
:1007FE0000000000003F404000000000FF0000002D
:10080E0000000000FF0000000002027C80000000DB
:10081E000040403F000000000006010102020404F7
:10082E0000000000000000001060028C0000FE922C
:10083E0092929292FE000000000000000000000064
:10084E00000000000000000004047E01407E4242D1
:10085E007E427E42427E400000000000000000000A
:10086E0000000000000000000000FC242424FC25F1
:10087E002624FC24242404000000000000000000B4
:10088E00000000000000000040308F80844C552591
:10089E002525554C808080000000000000000000DF
:1008AE0000000000000000001060028C00FE92921A
:1008BE0092929292FE0000000000000000000000E4
:1008CE00000000000000000004047E014448507F38
:1008DE0040407F50484440000000000000000000EF
:1008EE0000000000000000000000FC242424FC2571
:1008FE002624FC2424240400000000000000000034
:10090E00000000000000000040308F80844C552510
:10091E002525554C8080800000000000000000005E
:10092E00000000000000000000FC848484FC001025
:10093E0010101010FF10100000000000000000004A
:10094E000000000000000000003F1010103F0000EB
:10095E00010640807F000000000000000000000043
:10096E00000000000000000000F8010600F0121266
:10097E0012F2020202FE0000000000000000000061
:10098E00000000000000000000FF0000001F111119
:10099E00111F0040807F00000000000000000000DA
:1009AE000000000000000000060909E6F80C040231
:1009BE0002020202041E00000000000000000000FF
:1009CE000000000000000000000000071F30204063
:1009DE0040404040201000000000000000000000D9
:0809EE00000000000000000001
:101E8500EF4E60157D087C07ED1DAA0470011C4A04
:091E950070F6EF1F70EA1E80E7F1
:011E9E002221
:101D5700F583E5822CF582E43583F583E493FF7DF3
:011D6700017A
:101D6800ED6004D2938002C293C294E4FEC296EF5F
:101D780030E704D2918002C291D296EF25E0FF0E9F
:071D8800BE08EAD294D293D9
:011D8F002231
:101E0F00AC07ED24B0FFE4FD121D68EC54F0C45490
:101E1F000F4410FF121D68EC540F4401FF021D68A0
:101EF900E4FD7F8D121D687F14121D687FAF021DDE
:011F0900686F
:101F0A00E4FD7F8D121D687F10121D687FAE021DD1
:011F1A00685E
:101DC500E4FCEC24B0FFE4FD121D68E4FF121D687D
:101DD5007F10121D68E4FB7D01E4FF121D680BBB3B
:061DE50080F50CBC08DCD7
:011DEB0022D5
:061AD100AA07A905AF03FE
:101AD700E4FCEF24E0FBEAD3947F4004E4FA09092D
:101AE700AF02AD01121E0FE4FC75F010EBA42CF54C
:101AF70082E435F0F583E5822446F582E5833402F6
:101B0700121D610CBC08E2AF02E904FD121E0FE4CE
:101B1700FC75F010EBA42CF582E435F0F583E58233
:101B2700244EF582E5833402121D610CBC08E222C3
:040003008F4AA90572
:100007007F017E00AD0119ED6009AD4A7C00121831
:030017007480F101
:01001A0022C3
:081A5D008F418D428A438B4446
:101A6500E4F549F547E547C39545505FC3E5459519
:101A75004714FD7F0A120003AC43AD44CFCDCFCE52
:101A8500CCCE1218867C007D0A1218868D48E54951
:101A95007020E54514FFE547C39F5016E548700FD4
:101AA500E546C3138547F0A42541FF7B20801375C8
:101AB5004901E546C3138547F0A42541FFE54824C0
:0B1AC50030FBAD42121AD10547809A99
:011AD00022F3
:0A1D1A008F588D598B5A8A5B895C43
:101D2400E4F55DAB5AAA5BA95C855D8275830012FC
:101D34001847FB601DAD59AF58121AD174082558C5
:101D4400F558D394784007E4F55805590559055DCD
:021D540080D13C
:011D5600226A
:041CD700AA07A905AA
:101CDB00E4F541121E0FE4FC75F040EBA42436F53D
:101CEB0082E5F03408121D5705410CBC10EAAF0217
:101CFB00E904FD121E0FE4FC75F040EBA42456F52D
:0E1D0B0082E5F03408121D5705410CBC10EAA9
:011D190022A7
:041B37008F378B3920
:101B3B00E4F53EF53FE53A5407700BE53A13131302
:101B4B00541FF540800AE53A131313541F04F54054
:101B5B008D40E540C3953A5034AD40AF37121E0F60
:101B6B00AC37ECC395395021AB3BAA3CA93D053FA3
:101B7B00E53FAE3E7002053E14F5828E8312184788
:0D1B8B00FF7D01121D680C80D9054080C54A
:011B9800222A
:10179700D2927F647E00121E85C2927F647E001201
:1017A7001E85D292E4FD7FAE121D68E4FF121D680C
:1017B7007F10121D687F40121D687F81121D687F90
:1017C700CF121D687FA1121D687FC8121D687FA6F2
:1017D700121D687FA8121D687F3F121D687FD312F4
:1017E7001D68E4FF121D687FD5121D687F80121DDA
:1017F700687FD9121D687FF1121D687FDA121D6894
:101807007F12121D687FDB121D687F40121D687FE3
:1018170020121D687F02121D687F8D121D687F14BC
:10182700121D687FA4121D687FA6121D687FAF1264
:101837001D687FAF121D68121DC5E4FDFF021E0F54
:041F3400025E000049
:1019E3002087047F0180027F00EF25E0FF2086042B
:1019F3007E0180027E00EE4207EF25E0FF20850492
:101A03007E0180027E00EE4207E55E704CE55F14C6
:101A1300601114603D24027040EF603D755E0075F7
:101A23005F0122EF602930E105756101801AEF3013
:101A3300E0057560018011EF30E20D0562AE62EEE4
:101A4300C394044003E4F562755E00755F0222E40B
:091A53008003EF7004F55EF55FFD
:011A5C002267
:101C4000E562702B121ECDE54DC4540FF519E54D1C
:101C5000540FF51AE54CC4540FF51BE54C540FF521
:101C60001CE54BC4540FF51DE54B540FF51E22E542
:101C700021B40118E4F521752001851922851A2364
:0D1C8000851B24851C25851D26851E272219
:10196700E50E700B121B99852A0A852B0B050E05B0
:101977000DE50D7002050CAE0CC39464EE940040A7
:101987005AE4F50CF50D121B99852A08E508C3954D
:101997000A4008E508950AF5418007C3E50A950856
:1019A700F541E541D39414500985081785080A7550
:1019B7002901852B09E509C3950B4008E509950B16
:1019C700F5418007C3E50B9509F541E541D394033C
:0B19D700500985091885090B752801CF
:0119E20022E2
:1014F800E529B4011AE4F529851741E54175F00A93
:1015080084F512E54175F00A8485F013751001E53C
:1015180028B4011AE4F528851841E54175F00A84D4
:10152800F514E54175F00A8485F015751101E56239
:101538006401705DE5207003752101E561B401293E
:10154800E4F5610523AF23EFC3940A40050522E4BF
:10155800F523E523640460030216BAE522640260F9
:10156800030216BAF522F52322E56064016003023E
:1015780016BAF5601523AF23EFC394FF5003021684
:10158800BA1522AF22EF94FF400375220275230398
:1015980022E5626402704DE561B40120E4F561055D
:1015A80025AF25EFC3940A50030216BA0524AF24C9
:1015B800EF94064003E4F524E4F52522E560640190
:1015C80060030216BAF5601525AF25EFC394FF50E6
:1015D800030216BA1524AF24EF94FF4003752405BF
:1015E80075250922E56264037050750F01E561B441
:1015F8000120E4F5610527AF27EFC3940A500302E1
:1016080016BA0526AF26EF94064003E4F526E4F55E
:101618002722E560640160030216BAF5601527AF5A
:1016280027EFC394FF50030216BA1526AF26EF948E
:10163800FF400375260575270922E50F64017072BE
:10164800F50FF520E526C454F04527F542E524C4F6
:1016580054F04525F543E522C454F04523F544E408
:10166800FD7F8E121D90901F40E493FFAD42121D26
:1016780090901F41E493FFAD43121D90901F42E4E8
:1016880093FFAD44121D90901F43E493FFAD4E129B
:101698001D90901F44E493FFAD4F121D90901F457D
:1016A800E493FFAD50121D907D807F8E121D9075C2
:0216B800160119
:0116BA00220D
:1018E700021E6AE493A3F8E493A34003F68001F28F
:1018F70008DFF48029E493A3F85407240CC8C33302
:10190700C4540F4420C8834004F456800146F6DFD0
:10191700E4800B0102040810204080901F2BE47E16
:10192700019360BCA3FF543F30E509541FFEE493C5
:10193700A360010ECF54C025E060A840B8E493A38C
:10194700FAE493A3F8E493A3C8C582C8CAC583CAB7
:10195700F0A3C8C582C8CAC583CADFE9DEE780BE6F
:011F380000A8
:10184700BB010CE58229F582E5833AF583E0225056
:1018570006E92582F8E622BBFE06E92582F8E222A0
:0D186700E58229F582E5833AF583E49322BA
:10187400EF8DF0A4A8F0CF8CF0A428CE8DF0A42E88
:02188400FE2242
:10188600BC000BBE0029EF8DF084FFADF022E4CC46
:10189600F875F008EF2FFFEE33FEEC33FCEE9DEC0F
:1018A600984005FCEE9DFE0FD5F0E9E4CEFD22ED55
:1018B600F8F5F0EE8420D21CFEADF075F008EF2F9F
:1018C600FFED33FD4007985006D5F0F222C398FD90
:0518D6000FD5F0EA222D
:00000001FF
