:0300000002170DD7
:0C170D00787FE4F6D8FD75816202175465
:031D9D00DFFE2244
:101C6D00D3EF9400EE940040147D6E7C00ED1D705A
:0D1C7D00011CED4C70F7EF1F70E61E80E3B8
:011C8A002237
:101CE000D2B27F02121D9DC2B27F147E00121C6D03
:071CF000D2B27F1E021D9D10
:101CA900E4FEFD30B2FD7F08121D9DEE25E0FE30F9
:0C1CB900B2010E20B2FD0DBD08E9AF061F
:011CC50022FC
:10195100121CE020B25330B2FD7F28121D9D121CD3
:10196100A98F3E121CA9A907121CA9AC07121CA918
:10197100AB07121CA98F3F7F19121D9DE9FFE53EA0
:101981002FFFE433FEEC7583002FFFE5833EFEEB72
:101991002FFFE5833EFEE53FB5070EE583B506095A
:0919A100853E2689288C278B293C
:0119AA00221A
:1009F6000003050911FF118905C300E000F000F8A6
:100A0600000000000000004428FF11AA4400000076
:100A160000000000000000000000000000000000D0
:100A260000000000000000000000000000000000C0
:100A360000000000000000000000000000000000B0
:100A4600000000000000000000008301384482928C
:100A560092740183000000000000007C44FF017DC9
:100A66007D7D017D7D7D7D017D7D7D7D7D01FF001F
:100A7600000000000001000100010001000100016A
:100A8600000000000000000000010100000000005E
:100A96000000000000000000000000000000000050
:100AA6000000000000000000000000000000000040
:100AB6000000000000000000000000000000000030
:100AC600000000000000000000000101000000001E
:100AD600000001010000000000000000000101010B
:100AE60001010101010101010101010101010100F1
:100AF60000000000000000000000000000000000F0
:100B06000000000000000000000000003F3F03035B
:100B1600F31311111111111101F11161810101017B
:100B2600816111F1010101014141F101010101015F
:100B3600C1211111111121C1010101014141F1012F
:100B46000101010101010101011111111111D3333B
:100B560003033F3F0000000000000000000000000B
:100B6600000000000000000000000000000000007F
:100B7600000000000000000000000000000000006F
:100B8600000000000000000000000000E0E000009F
:100B96007F01010101010100007F00000106180626
:100BA6000100007F0000000040407F404000000040
:100BB6001F2040404040201F0000000040407F4072
:100BC6004000000000600000000040300C03000000
:100BD6000000E0E00000000000000000000000004F
:100BE60000000000000000000000000000000000FF
:100BF60000000000000000000000000000000000EF
:100C060000000000000000000000000007070606C4
:100C1600060604040484444444840404844444448A
:100C26008404040484C404040404844444448404FE
:100C360004040404844444448404040404048444EE
:100C4600444484040484444444840404040406069A
:100C56000606070700000000000000000000000074
:100C6600000000000000000000000000000000007E
:100C7600000000000000000000000000000000006E
:100C8600000000000000000000000000000000005E
:100C96000000000000101814121100000F101010B0
:100CA6000F000000101F10000000081012120D00A7
:100CB600001800000D1212120D0000180000101886
:100CC6001412110000101814121100000000000088
:100CD600000000000000000000000000000000000E
:100CE60000000000000000000000000000000000FE
:100CF60000000000000000000000000000000000EE
:100D060000000000000000000000000000000000DD
:100D160000000000000000000000000000000000CD
:100D260000000000000000000000000080808080BD
:100D360080808080000000000000000000000000AD
:100D4600000000000000000000000000000000009D
:100D5600000000000000000000000000000000008D
:100D6600000000000000000000000000000000007D
:100D7600007F030C300C037F0000385454580000E9
:100D86007C04047800003C40407C00000000000029
:100D9600000000000000000000000000000000004D
:100DA600000000000000000000000000FFAAAAAA40
:100DB600280800FF000000000000000000000000FE
:100DC600000000000000000000000000000000001D
:100DD6000000000000000000007F030C300C037FC1
:100DE6000000264949493200007F020408107F00AE
:100DF6000003050911FF118905C300E000F000F8A2
:100E0600000000000000004428FF11AA4400000072
:100E160000000000000000000000000000000000CC
:100E260000000000000000000000000000000000BC
:100E360000000000000000000000000000000000AC
:100E46000000000000000000000083013844829288
:100E560092740183000000000000007C44FF017DC5
:100E66007D7D7D017D7D7D7D017D7D7D7D01FF001B
:100E76000000000000010001000100010001000166
:100E8600000000000000000000010100000000005A
:100E9600000000000000000000000000000000004C
:100EA600000000000000000000000000000000003C
:100EB600000000000000000000000000000000002C
:100EC600000000000000000000000101000000001A
:100ED6000000010100000000000000000001010107
:100EE60001010101010101010101010101010100ED
:100EF60000000000000000000000000000000000EC
:100F0600000000000000000000000000000000F8E3
:100F16000808080808080800F81860800000008023
:100F26006018F80000002020F8000000000000E033
:100F3600100808080810E00000002020F800000053
:100F46000000000000000000000808080808886883
:100F56001800000000000000000000000000000073
:100F6600000000000000000000000000000000007B
:100F7600000000000000000000000000000000006B
:100F86000000000000000000000000000000007FDC
:100F960001010101010100007F00000106180601A0
:100FA60000007F00000040407F4040000000001F1E
:100FB6002040404040201F00000040407F4040004D
:100FC600000000006000000000000060180601003C
:100FD600000000000000000000000000000000000B
:100FE60000000000000000000000000000000000FB
:100FF60000000000000000000000000000000000EB
:1010060000000000000000000000000000000000DA
:10101600000000000040202020C00000E02020202A
:10102600E000000040E00000000060202020E0001A
:1010360000000000E0202020E0000000000040202A
:101046002020C0000040202020C00000000000003A
:10105600000000000000000000000000000000008A
:10106600000000000000000000000000000000007A
:10107600000000000000000000000000000000006A
:10108600000000000000000000000000000000005A
:1010960000000000000C0A0A090C00000F080808EE
:1010A6000F000000080F080000000C0809090E00D8
:1010B600000C00000F0909090F00000C00000C0AC3
:1010C6000A090C00000C0A0A090C000000000000C6
:1010D600000000000000000000000000000000000A
:1010E60000000000000000000000000000000000FA
:1010F60000000000000000000000000000000000EA
:1011060000000000000000000000000000000000D9
:1011160000000000000000000000000000000000C9
:1011260000000000000000000000000080808080B9
:1011360080808080000000000000000000000000A9
:101146000000000000000000000000000000000099
:101156000000000000000000000000000000000089
:101166000000000000000000000000000000000079
:10117600007F030C300C037F0000385454580000E5
:101186007C04047800003C40407C00000000000025
:101196000000000000000000000000000000000049
:1011A600000000000000000000000000FFAAAAAA3C
:1011B600280800FF000000000000000000000000FA
:1011C6000000000000000000000000000000000019
:1011D6000000000000000000007F030C300C037FBD
:1011E6000000264949493200007F020408107F00AA
:1014ED001215C9121C037B04E4FDFF121A9A7B0529
:1014FD00E4FD7F10121A9A7B3AE4FD7F20121889C1
:10150D007B2DE4FD7F301218897B2DE4FD7F381291
:10151D0018897B3AE4FD7F401218897B2DE4FD7F0D
:10152D00481218897B2DE4FD7F501218897B3AE40F
:10153D00FD7F581218897B2DE4FD7F601218897B81
:10154D002DE4FD7F68121889E4FB7D03FF121A9AC2
:10155D007B017D037F10121A9A7B3A7D037F201247
:10156D0018897B2D7D037F301218897B2D7D037F9C
:10157D00381218897B067D037F48121A9A7B027DEB
:10158D0006E4FF121A9A7B037D067F10121A9A7BCE
:10159D003A7D067F201218897B2D7D067F3012182B
:1015AD00897B2D7D067F381218897B527D067F48F9
:0C15BD001218897B487D067F50021889B7
:1011F600E55E705FE517FB7A00754101754210E404
:10120600FD7F30121815E518FB7A0075410175420D
:1012160010E4FD7F38121815E519FB7A00754101B7
:10122600754210E4FD7F48121815E51AFB7A007521
:101236004101754210E4FD7F50121815E51BFB7A3B
:1012460000754101754210E4FD7F60121815E51C1A
:10125600021438E55E640160030212F6054FE54F9D
:101266007002054EC39432E54E94004005E4F54EF7
:10127600F54FD3E54F9419E54E94005026E51EFB35
:101286007A00754101754210E4FD7F30121815E5AC
:101296001FFB7A00754101754210E4FD7F38121874
:1012A6001580127B20E4FD7F301218897B20E4FD37
:1012B6007F38121889E520FB7A00754101754210C6
:1012C600E4FD7F48121815E521FB7A00754101758A
:1012D6004210E4FD7F50121815E522FB7A00754195
:1012E60001754210E4FD7F60121815E523021438DB
:1012F600E55E640260030213B20551E55170020512
:1013060050C39432E55094004005E4F550F551D3AE
:10131600E5519419E5509400E51EFB7A0050457599
:101326004101754210E4FD7F30121815E51FFB7A66
:1013360000754101754210E4FD7F38121815E5204D
:10134600FB7A00754101754210E4FD7F48121815BD
:10135600E521FB7A00754101754210E4FD7F5012CC
:1013660018158031754101754210E4FD7F30121861
:1013760015E51FFB7A00754101754210E4FD7F38C3
:101386001218157B20E4FD7F481218897B20E4FDA6
:101396007F50121889E522FB7A00754101754210CB
:1013A600E4FD7F60121815E523021438E55E640338
:1013B600600302149C0553E55370020552C3943230
:1013C600E55294004005E4F552F553D3E5539419DC
:1013D600E5529400E51EFB7A0050667541017542A0
:1013E60010E4FD7F30121815E51FFB7A00754101E8
:1013F600754210E4FD7F38121815E520FB7A00755A
:101406004101754210E4FD7F48121815E521FB7A6B
:1014160000754101754210E4FD7F50121815E52252
:10142600FB7A00754101754210E4FD7F60121815C4
:10143600E523FB7A00754101754210E4FD7F688063
:1014460052754101754210E4FD7F30121815E51FF3
:10145600FB7A00754101754210E4FD7F38121815BC
:101466007B20E4FD7F601218897B20E4FD7F6812F3
:101476001889E520FB7A00754101754210E4FD7F6D
:1014860048121815E521FB7A00754101754210E4F2
:10149600FD7F50121815E5106024E513FB7A0075E0
:1014A60041017542107D037F30121815E514FB7A51
:1014B600007541017542107D037F38121815E50F3E
:1014C6006024E511FB7A007541017542107D067FA7
:1014D60030121815E512FB7A007541017542107D30
:0614E600067F3812181504
:0114EC0022DD
:0E1D7A0081838587898B8D80828486888A8C00
:091D6C00074700001207050616E6
:101BCE00C2B500C29500D2B500E4FEEF1392B4EF99
:101BDE00C313FFD29500C295000EBE08EEE4FEEDD3
:101BEE001392B4EDC313FDD29500C295000EBE083C
:041BFE00EEC2B5007E
:011C020022BF
:101A5000C2B500C29500D2B500E4FDEF1392B4EF19
:101A6000C313FFD29500C295000DBD08EE00E4FD42
:101A7000A2B4E433FFC43333335480FCEEC3134CBD
:101A8000FED29500C295000DBD08E5C2B500D29505
:091A900000C2B400D2B400AF069C
:011A9900222A
:101C2A00E4FD7F8E121BCEE4FCEC901D8193FF74C1
:101C3A00472CF8E6FD121BCE0CBC07ED7D807F8E8B
:031C4A00021BCEAC
:101D0E00E4FBEB901D7A93FF121A5074472BF8A642
:051D1E00070BBB07EDFF
:011D2300229D
:101D5C00438901758CD8758AF0D28CD2A9D2AF2266
:0E1D8800438910758DD8758BF0D28CD2AF22A6
:101A0300AB8A7A00D3EF9400EE64809480403DA9C2
:101A13008AE97C00FD9BEA6480F8748098400AEDB3
:101A23009BF560EC9AF55F8014C3E49BF582740127
:101A33009AF583E5822DF560E5833CF55FC3EF9569
:0C1A430060FFEE955FFEAA04AB0580B8C2
:011A4F002274
:021D24008F3DF1
:101D2600E4FFAE3D153DEE600A1FEF60F5000000D2
:031D36000080F634
:011D39002287
:101CF7007DBC7C02ED1D70011CED4C70F7EF1F7071
:061D0700011E144E70EAFB
:011D0D0022B3
:101C8B00C2801214ED121C2A7FC8121D241211F6E9
:0E1C9B001219AB121ADD121799121B9580EF69
:03001B00021D962D
:071D9600758CD8758AF0324C
:10001E000000000000000000002F0000000007009C
:10002E00070000147F147F1400242A7F2A12006216
:10003E0064081323003649552250000005030000C2
:10004E0000001C224100000041221C000014083E4A
:10005E0008140008083E0808000000A06000000810
:10006E000808080800006060000000201008040264
:10007E00003E5149453E0000427F40000042615122
:10008E004946002141454B31001814127F100027BC
:10009E0045454539003C4A4949300001710905037F
:1000AE0000364949493600064949291E00003636B0
:1000BE000000000056360000000814224100001413
:1000CE0014141414000041221408000201510906F0
:1000DE0000324959513E007C1211127C007F494971
:1000EE004936003E41414122007F4141221C007FA2
:1000FE0049494941007F09090901003E4149497AB0
:10010E00007F0808087F0000417F41000020404129
:10011E003F01007F08142241007F40404040007F95
:10012E00020C027F007F0408107F003E4141413ED9
:10013E00007F09090906003E4151215E007F091921
:10014E0029460046494949310001017F0101003F1E
:10015E004040403F001F2040201F003F4038403F9E
:10016E000063140814630007087008070061514902
:10017E00454300007F41410000552A552A55000095
:10018E0041417F0000040201020400404040404013
:10019E00000001020400002054545478007F4844AB
:1001AE00443800384444442000384444487F0038E2
:1001BE005454541800087E0901020018A4A4A47C0B
:1001CE00007F080404780000447D400000408084D5
:1001DE007D00007F102844000000417F4000007C1D
:1001EE0004180478007C0804047800384444443829
:1001FE0000FC242424180018242418FC007C080475
:10020E00040800485454542000043F444020003C4D
:10021E004040207C001C2040201C003C4030403CD4
:10022E00004428102844001CA0A0A07C0044645464
:10023E004C441414141414140000000000000000A8
:10024E000000000000000000000000F800000000A8
:10025E00000000333000000000100C06100C0600E9
:10026E00000000000000000040C07840C078400050
:10027E00043F04043F040400007088FC08300000B2
:10028E00001820FF211E0000F008F000E01800000A
:10029E0000211C031E211E0000F0088870000000C3
:1002AE001E2123241927211010160E000000000015
:1002BE000000000000000000000000E01804020032
:1002CE00000000071820400000020418E0000000A3
:1002DE000040201807000000404080F080404000A1
:1002EE000202010F01020200000000F000000000F7
:1002FE000101011F010101000000000000000000CB
:10030E0080B070000000000000000000000000003F
:10031E0000010101010101010000000000000000C8
:10032E000030300000000000000000008060180463
:10033E00006018060100000000E010080810E00040
:10034E00000F102020100F00001010F80000000009
:10035E000020203F20200000007008080888700050
:10036E0000302824222130000030088888483000D0
:10037E000018202020110E000000C02010F80000F0
:10038E0000070424243F240000F808888808080089
:10039E000019212020110E0000E01088881800009E
:1003AE00000F112020110E0000380808C838080070
:1003BE000000003F000000000070880808887000F0
:1003CE00001C222121221C0000E010080810E00071
:1003DE000000312222110F00000000C0C0000000FA
:1003EE00000000303000000000000080000000001F
:1003FE000000806000000000000080402010080017
:10040E0000010204081020004040404040404000DF
:10041E0004040404040404000008102040800000BA
:10042E000020100804020100007048080808F000BF
:10043E000000003036010000C030C828E810E0008F
:10044E000718272423140B000000C038E00000001A
:10045E00203C23020227382008F888888870000084
:10046E00203F202020110E00C03008080808380058
:10047E00071820202010080008F808080810E000CF
:10048E00203F202020100F0008F88888E808100070
:10049E00203F20202320180008F88888E808100044
:1004AE00203F200003000000C0300808083800007C
:1004BE0007182020221E020008F808000008F8087D
:1004CE00203F210101213F20000808F80808000004
:1004DE000020203F2020000000000808F808080037
:1004EE00C08080807F00000008F888C028180800AF
:1004FE00203F20012638200008F8080000000000E8
:10050E00203F20202020300008F8F800F8F80800DE
:10051E00203F003F003F200008F830C00008F808D8
:10052E00203F200007183F00E01008080810E000E8
:10053E000F10202020100F0008F808080808F000FF
:10054E00203F210101010000E01008080810E00022
:10055E000F18242438504F0008F8888888887000B7
:10056E00203F2000030C3020007088080808380057
:10057E000038202121221C00180808F8080818004D
:10058E000000203F2000000008F808000008F808CE
:10059E00001F202020201F000878880000C838087F
:1005AE00000007380E010000F80800F80008F800F7
:1005BE00033C0700073C0300081868808068180891
:1005CE0020302C03032C30200838C800C83808000F
:1005DE000000203F2000000010080808C83808005E
:1005EE002038262120201800000000FE0202020002
:1005FE000000007F40404000000C30C000000000B2
:10060E00000000010638C00000020202FE000000D9
:10061E00004040407F00000000000402020204007F
:10062E0000000000000000000000000000000000BC
:10063E0080808080808080800002020400000000A4
:10064E00000000000000000000008080808000009C
:10065E000019242222223F2008F80080800000008A
:10066E00003F112020110E0000000080808000004D
:10067E00000E112020201100000000808088F8005C
:10068E00000E112020103F2000008080808000008E
:10069E00001F222222221300008080F088888818F2
:1006AE000020203F202000000000808080808000FD
:1006BE00006B94949493600008F800808080000092
:1006CE00203F210000203F2000809898000000006D
:1006DE000020203F2020000000000080989800009D
:1006EE0000C08080807F000008F8000080808000BD
:1006FE00203F24022D302000000808F800000000E2
:10070E000020203F2020000080808080808080009C
:10071E00203F20003F20003F80800080808000002E
:10072E00203F210000203F200000808080800000BC
:10073E00001F202020201F008080008080000000ED
:10074E0080FFA12020110E0000000080808080001C
:10075E00000E112020A0FF8080808000808080000D
:10076E0020203F212000010000008080808080003A
:10077E000033242424241900008080E080800000AF
:10078E000000001F202000008080000000808000FC
:10079E00001F202020103F2080808000008080805D
:1007AE0000010E30080601008080008000808080ED
:1007BE000F300C030C300F00008080008080800012
:1007CE000020312E0E31200080808000008080803D
:1007DE0080818E70180601000080808080808000ED
:1007EE000021302C2221300000000000807C02020B
:1007FE0000000000003F404000000000FF0000002D
:10080E0000000000FF0000000002027C80000000DB
:10081E000040403F000000000006010102020404F7
:10082E0000000000000000001060028C0000FE922C
:10083E0092929292FE000000000000000000000064
:10084E00000000000000000004047E01407E4242D1
:10085E007E427E42427E400000000000000000000A
:10086E0000000000000000000000FC242424FC25F1
:10087E002624FC24242404000000000000000000B4
:10088E00000000000000000040308F80844C552591
:10089E002525554C808080000000000000000000DF
:1008AE0000000000000000001060028C00FE92921A
:1008BE0092929292FE0000000000000000000000E4
:1008CE00000000000000000004047E014448507F38
:1008DE0040407F50484440000000000000000000EF
:1008EE0000000000000000000000FC242424FC2571
:1008FE002624FC2424240400000000000000000034
:10090E00000000000000000040308F80844C552510
:10091E002525554C8080800000000000000000005E
:10092E00000000000000000000FC848484FC001025
:10093E0010101010FF10100000000000000000004A
:10094E000000000000000000003F1010103F0000EB
:10095E00010640807F000000000000000000000043
:10096E00000000000000000000F8010600F0121266
:10097E0012F2020202FE0000000000000000000061
:10098E00000000000000000000FF0000001F111119
:10099E00111F0040807F00000000000000000000DA
:1009AE000000000000000000060909E6F80C040231
:1009BE0002020202041E00000000000000000000FF
:1009CE000000000000000000000000071F30204063
:1009DE0040404040201000000000000000000000D9
:0809EE00000000000000000001
:101CC600EF4E60157D087C07ED1DAA0470011C4AC5
:091CD60070F6EF1F70EA1E80E7B2
:011CDF0022E2
:101B5C00F583E5822CF582E43583F583E493FF7DF0
:011B6C000177
:101B6D00ED6004D2938002C293C294E4FEC296EF5C
:101B7D0030E704D2918002C291D296EF25E0FF0E9C
:071B8D00BE08EAD294D293D6
:011B9400222E
:101C4D00AC07ED24B0FFE4FD121B6DEC54F0C45451
:101C5D000F4410FF121B6DEC540F4401FF021B6D5E
:101D3A00E4FD7F8D121B6D7F14121B6D7FAF021B9A
:011D4A006D2B
:101D4B00E4FD7F8D121B6D7F10121B6D7FAE021B8E
:011D5B006D1A
:101C0300E4FCEC24B0FFE4FD121B6DE4FF121B6D3A
:101C13007F10121B6DE4FB7D01E4FF121B6D0BBBF8
:061C230080F50CBC08DC9A
:011C29002298
:06188900AA07A905AF0348
:10188F00E4FCEF24E0FBEAD3947F4004E4FA090977
:10189F00AF02AD01121C4DE4FC75F010EBA42CF55A
:1018AF0082E435F0F583E5822446F582E583340240
:1018BF00121B660CBC08E2AF02E904FD121C4DE4DA
:1018CF00FC75F010EBA42CF582E435F0F583E5827E
:1018DF00244EF582E5833402121B660CBC08E2220B
:040003008F46A90576
:100007007F017E00AD0119ED6009AD467C00121637
:03001700A680F1CF
:01001A0022C3
:081815008F3D8D3E8A3F8B40A0
:10181D00E4F545F543E543C39541505FC3E5419577
:10182D004314FD7F0A120003AC3FAD40CFCDCFCEA8
:10183D00CCCE1216B87C007D0A1216B88D44E54543
:10184D007020E54114FFE543C39F5016E544700F2A
:10185D00E542C3138543F0A4253DFF7B208013751E
:10186D004501E542C3138543F0A4253DFFE544241E
:0B187D0030FBAD3E1218890543809A35
:01188800223D
:0A1B1F008F548D558B568A57895854
:101B2900E4F559AB56AA57A958855982758300120D
:101B39001679FB601DAD55AF5412188974082554E8
:101B4900F554D394784007E4F554055505550559DE
:021B590080D139
:011B5B002267
:041A9A00AA07A905E9
:101A9E00E4F53D121C4DE4FC75F040EBA42436F544
:101AAE0082E5F03408121B5C053D0CBC10EAAF0257
:101ABE00E904FD121C4DE4FC75F040EBA42456F530
:0E1ACE0082E5F03408121B5C053D0CBC10EAEA
:011ADC0022E7
:0418EF008F338B3573
:1018F300E4F53AF53BE5365407700BE5361313135D
:10190300541FF53C800AE536131313541F04F53CAA
:101913008D3CE53CC395365034AD3CAF33121C4D82
:10192300AC33ECC395355021AB37AA38A939053B05
:10193300E53BAE3A7002053A14F5828E83121679AE
:0D194300FF7D01121B6D0C80D9053C80C595
:011950002274
:1015C900D2927F647E00121CC6C2927F647E001292
:1015D9001CC6D292E4FD7FAE121B6DE4FF121B6D97
:1015E9007F10121B6D7F40121B6D7F81121B6D7F57
:1015F900CF121B6D7FA1121B6D7FC8121B6D7FA6B9
:10160900121B6D7FA8121B6D7F3F121B6D7FD312BA
:101619001B6DE4FF121B6D7FD5121B6D7F80121BA2
:101629006D7FD9121B6D7FF1121B6D7FDA121B6D55
:101639007F12121B6D7FDB121B6D7F40121B6D7FAA
:1016490020121B6D7F02121B6D7F8D121B6D7F1483
:10165900121B6D7FA4121B6D7FA6121B6D7FAF122B
:101669001B6D7FAF121B6D121C03E4FDFF021C4DA5
:041D7500025A00000E
:1019AB00C2972090047F0180027F00EF25E025E0A5
:1019BB00FFE55A7042E55B1460111460332402702A
:1019CB0036EF6033755A00755B0122EF601F20E123
:1019DB0015EF20E011EF30E20D055EAE5EEEC39425
:1019EB00044003E4F55E755A00755B0222E4800344
:0719FB00EF7004F55AF55BE3
:011A020022C1
:101ADD00E55E702B121D0EE549C4540FF517E5494F
:101AED00540FF518E548C4540FF519E548540FF592
:101AFD001AE547C4540FF51BE547540FF51C228515
:101B0D00171E85181F851920851A21851B22851CF6
:021B1D00232281
:10179900E50E700B12195185260A85270B050E05D2
:1017A9000DE50D7002050CAE0CC39464EE94004077
:1017B9005AE4F50CF50D121951852608E508C3956B
:1017C9000A4008E508950AF53D8007C3E50A95082A
:1017D900F53DE53DD39414500985081585080A752A
:1017E9002501852709E509C3950B4008E509950BEE
:1017F900F53D8007C3E50B9509F53DE53DD3940318
:0B180900500985091685090B752401A4
:0118140022B1
:101B9500E525B40117E4F525AF15EF75F00A84F5D1
:101BA50011EF75F00A8485F012750F01E524B40173
:101BB50017E4F524AF16EF75F00A84F513EF75F009
:081BC5000A8485F0147510017B
:011BCD0022F5
:10171900021C8BE493A3F8E493A34003F68001F23F
:1017290008DFF48029E493A3F85407240CC8C333D1
:10173900C4540F4420C8834004F456800146F6DFA0
:10174900E4800B0102040810204080901D6CE47EA7
:10175900019360BCA3FF543F30E509541FFEE49395
:10176900A360010ECF54C025E060A840B8E493A35C
:10177900FAE493A3F8E493A3C8C582C8CAC583CA87
:10178900F0A3C8C582C8CAC583CADFE9DEE780BE3F
:011D79000069
:10167900BB010CE58229F582E5833AF583E0225026
:1016890006E92582F8E622BBFE06E92582F8E22270
:0D169900E58229F582E5833AF583E493228A
:1016A600EF8DF0A4A8F0CF8CF0A428CE8DF0A42E58
:0216B600FE2212
:1016B800BC000BBE0029EF8DF084FFADF022E4CC16
:1016C800F875F008EF2FFFEE33FEEC33FCEE9DECDF
:1016D800984005FCEE9DFE0FD5F0E9E4CEFD22ED25
:1016E800F8F5F0EE8420D21CFEADF075F008EF2F6F
:1016F800FFED33FD4007985006D5F0F222C398FD60
:051708000FD5F0EA22FC
:00000001FF
