:030000000218C023
:0C18C000787FE4F6D8FD758162021907FC
:031ED100DFFE220F
:101DC700D3EF9400EE940040147D6E7C00ED1D70FF
:0D1DD700011CED4C70F7EF1F70E61E80E35D
:011DE40022DC
:101E5000D2977F02121ED1C2977F147E00121DC737
:071E6000D2977F1E021ED184
:101DE500E4FEFD3097FD7F08121ED1EE25E0FE30A2
:0C1DF50097010E2097FD0DBD08E9AF0618
:011E010022BE
:101B7E00121E502097533097FD7F28121ED1121D32
:101B8E00E58F42121DE5A907121DE5AC07121DE5F2
:101B9E00AB07121DE58F437F19121ED1E9FFE542F7
:101BAE002FFFE433FEEC7583002FFFE5833EFEEB43
:101BBE002FFFE5833EFEE543B5070EE583B5060927
:091BCE0085422A892C8C2B8B2DF9
:011BD70022EB
:1009DB000003050911FF118905C300E000F000F8C1
:1009EB00000000000000004428FF11AA4400000092
:1009FB0000000000000000000000000000000000EC
:100A0B0000000000000000000000000000000000DB
:100A1B0000000000000000000000000000000000CB
:100A2B0000000000000000000000830138448292A7
:100A3B0092740183000000000000007C44FF017DE4
:100A4B007D7D017D7D7D7D017D7D7D7D7D01FF003A
:100A5B000000000000010001000100010001000185
:100A6B000000000000000000000101000000000079
:100A7B00000000000000000000000000000000006B
:100A8B00000000000000000000000000000000005B
:100A9B00000000000000000000000000000000004B
:100AAB000000000000000000000001010000000039
:100ABB000000010100000000000000000001010126
:100ACB00010101010101010101010101010101000C
:100ADB00000000000000000000000000000000000B
:100AEB000000000000000000000000003F3F030377
:100AFB00F31311111111111101F111618101010197
:100B0B00816111F1010101014141F101010101017A
:100B1B00C1211111111121C1010101014141F1014A
:100B2B000101010101010101011111111111D33356
:100B3B0003033F3F00000000000000000000000026
:100B4B00000000000000000000000000000000009A
:100B5B00000000000000000000000000000000008A
:100B6B00000000000000000000000000E0E00000BA
:100B7B007F01010101010100007F00000106180641
:100B8B000100007F0000000040407F40400000005B
:100B9B001F2040404040201F0000000040407F408D
:100BAB004000000000600000000040300C0300001B
:100BBB000000E0E00000000000000000000000006A
:100BCB00000000000000000000000000000000001A
:100BDB00000000000000000000000000000000000A
:100BEB0000000000000000000000000007070606E0
:100BFB0006060404048444444484040484444444A6
:100C0B008404040484C40404040484444444840419
:100C1B000404040484444444840404040404844409
:100C2B0044448404048444444484040404040606B5
:100C3B00060607070000000000000000000000008F
:100C4B000000000000000000000000000000000099
:100C5B000000000000000000000000000000000089
:100C6B000000000000000000000000000000000079
:100C7B000000000000101814121100000F101010CB
:100C8B000F000000101F10000000081012120D00C2
:100C9B00001800000D1212120D00001800001018A1
:100CAB0014121100001018141211000000000000A3
:100CBB000000000000000000000000000000000029
:100CCB000000000000000000000000000000000019
:100CDB000000000000000000000000000000000009
:100CEB0000000000000000000000000000000000F9
:100CFB0000000000000000000000000000000000E9
:100D0B0000000000000000000000000080808080D8
:100D1B0080808080000000000000000000000000C8
:100D2B0000000000000000000000000000000000B8
:100D3B0000000000000000000000000000000000A8
:100D4B000000000000000000000000000000000098
:100D5B00007F030C300C037F000038545458000004
:100D6B007C04047800003C40407C00000000000044
:100D7B000000000000000000000000000000000068
:100D8B00000000000000000000000000FFAAAAAA5B
:100D9B00280800FF00000000000000000000000019
:100DAB000000000000000000000000000000000038
:100DBB000000000000000000007F030C300C037FDC
:100DCB000000264949493200007F020408107F00C9
:100DDB000003050911FF118905C300E000F000F8BD
:100DEB00000000000000004428FF11AA440000008E
:100DFB0000000000000000000000000000000000E8
:100E0B0000000000000000000000000000000000D7
:100E1B0000000000000000000000000000000000C7
:100E2B0000000000000000000000830138448292A3
:100E3B0092740183000000000000007C44FF017DE0
:100E4B007D7D7D017D7D7D7D017D7D7D7D01FF0036
:100E5B000000000000010001000100010001000181
:100E6B000000000000000000000101000000000075
:100E7B000000000000000000000000000000000067
:100E8B000000000000000000000000000000000057
:100E9B000000000000000000000000000000000047
:100EAB000000000000000000000001010000000035
:100EBB000000010100000000000000000001010122
:100ECB000101010101010101010101010101010008
:100EDB000000000000000000000000000000000007
:100EEB00000000000000000000000000000000F8FF
:100EFB000808080808080800F8186080000000803F
:100F0B006018F80000002020F8000000000000E04E
:100F1B00100808080810E00000002020F80000006E
:100F2B00000000000000000000080808080888689E
:100F3B00180000000000000000000000000000008E
:100F4B000000000000000000000000000000000096
:100F5B000000000000000000000000000000000086
:100F6B000000000000000000000000000000007FF7
:100F7B0001010101010100007F00000106180601BB
:100F8B0000007F00000040407F4040000000001F39
:100F9B002040404040201F00000040407F40400068
:100FAB000000000060000000000000601806010057
:100FBB000000000000000000000000000000000026
:100FCB000000000000000000000000000000000016
:100FDB000000000000000000000000000000000006
:100FEB0000000000000000000000000000000000F6
:100FFB00000000000040202020C00000E020202046
:10100B00E000000040E00000000060202020E00035
:10101B0000000000E0202020E00000000000402045
:10102B002020C0000040202020C000000000000055
:10103B0000000000000000000000000000000000A5
:10104B000000000000000000000000000000000095
:10105B000000000000000000000000000000000085
:10106B000000000000000000000000000000000075
:10107B0000000000000C0A0A090C00000F08080809
:10108B000F000000080F080000000C0809090E00F3
:10109B00000C00000F0909090F00000C00000C0ADE
:1010AB000A090C00000C0A0A090C000000000000E1
:1010BB000000000000000000000000000000000025
:1010CB000000000000000000000000000000000015
:1010DB000000000000000000000000000000000005
:1010EB0000000000000000000000000000000000F5
:1010FB0000000000000000000000000000000000E5
:10110B0000000000000000000000000080808080D4
:10111B0080808080000000000000000000000000C4
:10112B0000000000000000000000000000000000B4
:10113B0000000000000000000000000000000000A4
:10114B000000000000000000000000000000000094
:10115B00007F030C300C037F000038545458000000
:10116B007C04047800003C40407C00000000000040
:10117B000000000000000000000000000000000064
:10118B00000000000000000000000000FFAAAAAA57
:10119B00280800FF00000000000000000000000015
:1011AB000000000000000000000000000000000034
:1011BB000000000000000000007F030C300C037FD8
:1011CB000000264949493200007F020408107F00C5
:1016A00012177C121D5D7B04E4FDFF121C6F7B058D
:1016B000E4FD7F10121C6F7B3AE4FD7F20121AB606
:1016C0007B2DE4FD7F30121AB67B2DE4FD7F3812AE
:1016D0001AB67B3AE4FD7F40121AB67B2DE4FD7FFB
:1016E00048121AB67B2DE4FD7F50121AB67B3AE4FD
:1016F000FD7F58121AB67B2DE4FD7F60121AB67B6F
:101700002DE4FD7F68121AB6E4FB7D03FF121C6F07
:101710007B017D037F10121C6F7B3A7D037F2012BB
:101720001AB67B2D7D037F30121AB67B2D7D037F89
:1017300038121AB67B067D037F48121C6F7B027D30
:1017400006E4FF121C6F7B037D067F10121C6F7B6B
:101750003A7D067F20121AB67B2D7D067F30121A45
:10176000B67B2D7D067F38121AB67B527D067F48E8
:0C177000121AB67B487D067F50021AB6A4
:1011DB00E562706AE516B40106E4F51602148CE5B7
:1011EB0019FB7A00754501754610E4FD7F30121A24
:1011FB0042E51AFB7A00754501754610E4FD7F3810
:10120B00121A42E51BFB7A00754501754610E4FD89
:10121B007F48121A42E51CFB7A0075450175461092
:10122B00E4FD7F50121A42E51DFB7A0075450175EE
:10123B004610E4FD7F60121A42E51E021428E56297
:10124B00640160030212E60553E55370020552C3B5
:10125B009432E55294004005E4F552F553D3E5532F
:10126B009419E55294005026E522FB7A007545014E
:10127B00754610E4FD7F30121A42E523FB7A0075A8
:10128B004501754610E4FD7F38121A4280127B200F
:10129B00E4FD7F30121AB67B20E4FD7F38121AB6BC
:1012AB00E524FB7A00754501754610E4FD7F481275
:1012BB001A42E525FB7A00754501754610E4FD7F62
:1012CB0050121A42E526FB7A00754501754610E46B
:1012DB00FD7F60121A42E527021428E56264026062
:1012EB00030213A20555E55570020554C39432E56C
:1012FB005494004005E4F554F555D3E5559419E5A0
:10130B00549400E522FB7A00504575450175461053
:10131B00E4FD7F30121A42E523FB7A007545017517
:10132B004610E4FD7F38121A42E524FB7A0075451E
:10133B0001754610E4FD7F48121A42E525FB7A0041
:10134B00754501754610E4FD7F50121A42803175C8
:10135B004501754610E4FD7F30121A42E523FB7AF6
:10136B0000754501754610E4FD7F38121A427B204B
:10137B00E4FD7F48121AB67B20E4FD7F50121AB6AB
:10138B00E526FB7A00754501754610E4FD7F60127A
:10139B001A42E527021428E5626403600302148CE9
:1013AB000557E55770020556C39432E55694004035
:1013BB0005E4F556F557D3E5579419E5569400E532
:1013CB0022FB7A005066754501754610E4FD7F30AF
:1013DB00121A42E523FB7A00754501754610E4FDB0
:1013EB007F38121A42E524FB7A00754501754610C9
:1013FB00E4FD7F48121A42E525FB7A00754501751D
:10140B004610E4FD7F50121A42E526FB7A00754523
:10141B0001754610E4FD7F60121A42E527FB7A0046
:10142B00754501754610E4FD7F6880527545017561
:10143B004610E4FD7F30121A42E523FB7A00754516
:10144B0001754610E4FD7F38121A427B20E4FD7FC4
:10145B0060121AB67B20E4FD7F68121AB6E524FBF6
:10146B007A00754501754610E4FD7F48121A42E576
:10147B0025FB7A00754501754610E4FD7F50121A65
:10148B0042E5116024E514FB7A00754501754610A1
:10149B007D037F30121A42E515FB7A007545017505
:1014AB0046107D037F38121A42E5106024E512FBCB
:1014BB007A007545017546107D067F30121A42E59C
:1014CB0013FB7A007545017546107D067F38121A9D
:0114DB0042CE
:0114DC0022ED
:0E1EC30081838587898B8D80828486888A8CB6
:091EB500074B0000120705061698
:101D2800C2A000C2B600D2A000E4FEEF1392B7EF43
:101D3800C313FFD2B600C2B6000EBE08EEE4FEED35
:101D48001392B7EDC313FDD2B600C2B6000EBE089B
:041D5800EEC2A00037
:011D5C002264
:101C2500C2A000C2B600D2A000E4FDEF1392B7EF48
:101C3500C313FFD2B600C2B6000DBD08EE00E4FD29
:101C4500A2B7E433FFC43333335480FCEEC3134CE3
:101C5500FED2B600C2B6000DBD08E5C2A000D2B6E0
:091C650000C2B700D2B700AF06BF
:011C6E002253
:101D8400E4FD7F8E121D28E4FCEC901ECA93FF74C0
:101D94004B2CF8E6FD121D280CBC07ED7D807F8ED0
:031DA400021D28F5
:101E6700E4FBEB901EC393FF121C25744B2BF8A6C3
:051E7700070BBB07EDA5
:011E7C002243
:021E7D008F4193
:101E7F00E4FFAE411541EE600A1FEF60F500000070
:031E8F000080F6DA
:011E9200222D
:101E02001216A0121D847FC8121E7D1211DB121938
:0C1E1200C8121BD812194C1214DD80EF0E
:100003000000000000000000002F000000000700B7
:10001300070000147F147F1400242A7F2A12006231
:1000230064081323003649552250000005030000DD
:1000330000001C224100000041221C000014083E65
:1000430008140008083E0808000000A0600000082B
:10005300080808080000606000000020100804027F
:10006300003E5149453E0000427F4000004261513D
:100073004946002141454B31001814127F100027D7
:1000830045454539003C4A4949300001710905039A
:1000930000364949493600064949291E00003636CB
:1000A300000000005636000000081422410000142E
:1000B300141414140000412214080002015109060B
:1000C30000324959513E007C1211127C007F49498C
:1000D3004936003E41414122007F4141221C007FBD
:1000E30049494941007F09090901003E4149497ACB
:1000F300007F0808087F0000417F41000020404145
:100103003F01007F08142241007F40404040007FB0
:10011300020C027F007F0408107F003E4141413EF4
:10012300007F09090906003E4151215E007F09193C
:1001330029460046494949310001017F0101003F39
:100143004040403F001F2040201F003F4038403FB9
:10015300006314081463000708700807006151491D
:10016300454300007F41410000552A552A550000B0
:1001730041417F000004020102040040404040402E
:10018300000001020400002054545478007F4844C6
:10019300443800384444442000384444487F0038FD
:1001A3005454541800087E0901020018A4A4A47C26
:1001B300007F080404780000447D400000408084F0
:1001C3007D00007F102844000000417F4000007C38
:1001D30004180478007C0804047800384444443844
:1001E30000FC242424180018242418FC007C080490
:1001F300040800485454542000043F444020003C69
:100203004040207C001C2040201C003C4030403CEF
:10021300004428102844001CA0A0A07C004464547F
:100223004C441414141414140000000000000000C3
:100233000000000000000000000000F800000000C3
:10024300000000333000000000100C06100C060004
:10025300000000000000000040C07840C07840006B
:10026300043F04043F040400007088FC08300000CD
:10027300001820FF211E0000F008F000E018000025
:1002830000211C031E211E0000F0088870000000DE
:100293001E2123241927211010160E000000000030
:1002A3000000000000000000000000E0180402004D
:1002B300000000071820400000020418E0000000BE
:1002C3000040201807000000404080F080404000BC
:1002D3000202010F01020200000000F00000000012
:1002E3000101011F010101000000000000000000E6
:1002F30080B070000000000000000000000000005B
:1003030000010101010101010000000000000000E3
:10031300003030000000000000000000806018047E
:10032300006018060100000000E010080810E0005B
:10033300000F102020100F00001010F80000000024
:100343000020203F2020000000700808088870006B
:1003530000302824222130000030088888483000EB
:100363000018202020110E000000C02010F800000B
:1003730000070424243F240000F8088888080800A4
:100383000019212020110E0000E0108888180000B9
:10039300000F112020110E0000380808C83808008B
:1003A3000000003F0000000000708808088870000B
:1003B300001C222121221C0000E010080810E0008C
:1003C3000000312222110F00000000C0C000000015
:1003D300000000303000000000000080000000003A
:1003E3000000806000000000000080402010080032
:1003F30000010204081020004040404040404000FB
:1004030004040404040404000008102040800000D5
:100413000020100804020100007048080808F000DA
:100423000000003036010000C030C828E810E000AA
:100433000718272423140B000000C038E000000035
:10044300203C23020227382008F88888887000009F
:10045300203F202020110E00C03008080808380073
:10046300071820202010080008F808080810E000EA
:10047300203F202020100F0008F88888E80810008B
:10048300203F20202320180008F88888E80810005F
:10049300203F200003000000C03008080838000097
:1004A30007182020221E020008F808000008F80898
:1004B300203F210101213F20000808F8080800001F
:1004C3000020203F2020000000000808F808080052
:1004D300C08080807F00000008F888C028180800CA
:1004E300203F20012638200008F808000000000003
:1004F300203F20202020300008F8F800F8F80800FA
:10050300203F003F003F200008F830C00008F808F3
:10051300203F200007183F00E01008080810E00003
:100523000F10202020100F0008F808080808F0001A
:10053300203F210101010000E01008080810E0003D
:100543000F18242438504F0008F8888888887000D2
:10055300203F2000030C3020007088080808380072
:100563000038202121221C00180808F80808180068
:100573000000203F2000000008F808000008F808E9
:10058300001F202020201F000878880000C838089A
:10059300000007380E010000F80800F80008F80012
:1005A300033C0700073C03000818688080681808AC
:1005B30020302C03032C30200838C800C83808002A
:1005C3000000203F2000000010080808C838080079
:1005D3002038262120201800000000FE020202001D
:1005E3000000007F40404000000C30C000000000CD
:1005F300000000010638C00000020202FE000000F5
:10060300004040407F00000000000402020204009A
:1006130000000000000000000000000000000000D7
:1006230080808080808080800002020400000000BF
:1006330000000000000000000000808080800000B7
:100643000019242222223F2008F8008080000000A5
:10065300003F112020110E00000000808080000068
:10066300000E112020201100000000808088F80077
:10067300000E112020103F200000808080800000A9
:10068300001F222222221300008080F0888888180D
:100693000020203F20200000000080808080800018
:1006A300006B94949493600008F8008080800000AD
:1006B300203F210000203F20008098980000000088
:1006C3000020203F202000000000008098980000B8
:1006D30000C08080807F000008F8000080808000D8
:1006E300203F24022D302000000808F800000000FD
:1006F3000020203F202000008080808080808000B8
:10070300203F20003F20003F808000808080000049
:10071300203F210000203F200000808080800000D7
:10072300001F202020201F00808000808000000008
:1007330080FFA12020110E00000000808080800037
:10074300000E112020A0FF80808080008080800028
:1007530020203F2120000100000080808080800055
:100763000033242424241900008080E080800000CA
:100773000000001F20200000808000000080800017
:10078300001F202020103F20808080000080808078
:1007930000010E3008060100808000800080808008
:1007A3000F300C030C300F0000808000808080002D
:1007B3000020312E0E312000808080000080808058
:1007C30080818E7018060100008080808080800008
:1007D3000021302C2221300000000000807C020226
:1007E30000000000003F404000000000FF00000048
:1007F30000000000FF0000000002027C80000000F7
:100803000040403F00000000000601010202040412
:1008130000000000000000001060028C0000FE9247
:1008230092929292FE00000000000000000000007F
:10083300000000000000000004047E01407E4242EC
:100843007E427E42427E4000000000000000000025
:1008530000000000000000000000FC242424FC250C
:100863002624FC24242404000000000000000000CF
:10087300000000000000000040308F80844C5525AC
:100883002525554C808080000000000000000000FA
:1008930000000000000000001060028C00FE929235
:1008A30092929292FE0000000000000000000000FF
:1008B300000000000000000004047E014448507F53
:1008C30040407F504844400000000000000000000A
:1008D30000000000000000000000FC242424FC258C
:1008E3002624FC242424040000000000000000004F
:1008F300000000000000000040308F80844C55252C
:100903002525554C80808000000000000000000079
:10091300000000000000000000FC848484FC001040
:1009230010101010FF101000000000000000000065
:100933000000000000000000003F1010103F000006
:10094300010640807F00000000000000000000005E
:10095300000000000000000000F8010600F0121281
:1009630012F2020202FE000000000000000000007C
:10097300000000000000000000FF0000001F111134
:10098300111F0040807F00000000000000000000F5
:100993000000000000000000060909E6F80C04024C
:1009A30002020202041E000000000000000000001A
:1009B3000000000000000000000000071F3020407E
:1009C30040404040201000000000000000000000F4
:0809D30000000000000000001C
:101E1E00EF4E60157D087C07ED1DAA0470011C4A6B
:091E2E0070F6EF1F70EA1E80E758
:011E37002288
:101CEF00F583E5822CF582E43583F583E493FF7D5C
:011CFF0001E3
:101D0000ED6004D2938002C293C294E4FEC290EFCD
:101D100030E704D2918002C291D290EF25E0FF0E0D
:071D2000BE08EAD294D29341
:011D27002299
:101DA700AC07ED24B0FFE4FD121D00EC54F0C45461
:101DB7000F4410FF121D00EC540F4401FF021D00D9
:101E9300E4FD7F8D121D007F14121D007FAF021D14
:011EA300003E
:101EA400E4FD7F8D121D007F10121D007FAE021D08
:011EB400002D
:101D5D00E4FCEC24B0FFE4FD121D00E4FF121D00B5
:101D6D007F10121D00E4FB7D01E4FF121D000BBB73
:061D7D0080F50CBC08DC3F
:011D8300223D
:061AB600AA07A905AF0319
:101ABC00E4FCEF24E0FBEAD3947F4004E4FA090948
:101ACC00AF02AD01121DA7E4FC75F010EBA42CF5D0
:101ADC0082E435F0F583E582242BF582E58334022C
:101AEC00121CF90CBC08E2AF02E904FD121DA7E4BC
:101AFC00FC75F010EBA42CF582E435F0F583E5824F
:101B0C002433F582E5833402121CF90CBC08E22262
:041E38008F4AA9051F
:101E3C007F017E00AD0119ED6009AD4A7C001218DE
:031E4C005980F1C9
:011E4F002270
:081A42008F418D428A438B4461
:101A4A00E4F549F547E547C39545505FC3E5459534
:101A5A004714FD7F0A121E38AC43AD44CFCDCFCE1A
:101A6A00CCCE12186B7C007D0A12186B8D48E549A2
:101A7A007020E54514FFE547C39F5016E548700FEF
:101A8A00E546C3138547F0A42541FF7B20801375E3
:101A9A004901E546C3138547F0A42541FFE54824DB
:0B1AAA0030FBAD42121AB60547809ACF
:011AB500220E
:0A1CB2008F588D598B5A8A5B895CAC
:101CBC00E4F55DAB5AAA5BA95C855D827583001265
:101CCC00182CFB601DAD59AF58121AB67408255864
:101CDC00F558D394784007E4F55805590559055D36
:021CEC0080D1A5
:011CEE0022D3
:041C6F00AA07A90512
:101C7300E4F541121DA7E4FC75F040EBA4241BF529
:101C830082E5F03408121CEF05410CBC10EAAF02E8
:101C9300E904FD121DA7E4FC75F040EBA4243BF519
:0E1CA30082E5F03408121CEF05410CBC10EA7B
:011CB1002210
:041B1C008F378B393B
:101B2000E4F53EF53FE53A5407700BE53A1313131D
:101B3000541FF540800AE53A131313541F04F5406F
:101B40008D40E540C3953A5034AD40AF37121DA7E4
:101B5000AC37ECC395395021AB3BAA3CA93D053FBE
:101B6000E53FAE3E7002053E14F5828E8312182CBE
:0D1B7000FF7D01121D000C80D9054080C5CD
:011B7D002245
:10177C00D2927F647E00121E1EC2927F647E001283
:10178C001E1ED292E4FD7FAE121D00E4FF121D005E
:10179C007F10121D007F40121D007F81121D007FE3
:1017AC00CF121D007FA1121D007FC8121D007FA645
:1017BC00121D007FA8121D007F3F121D007FD31247
:1017CC001D00E4FF121D007FD5121D007F80121D2D
:1017DC00007FD9121D007FF1121D007FDA121D004F
:1017EC007F12121D007FDB121D007F40121D007F37
:1017FC0020121D007F02121D007F8D121D007F1410
:10180C00121D007FA4121D007FA6121D007FAF12B7
:10181C001D007FAF121D00121D5DE4FDFF021DA710
:041EBE00025E0000C0
:1019C80020A1047F0180027F00EF25E0FF20A20410
:1019D8007E0180027E00EE4207EF25E0FF20A3048F
:1019E8007E0180027E00EE4207E55E704CE55F14E2
:1019F800601114603D24027040EF603D755E007513
:101A08005F0122EF602930E105756101801AEF302E
:101A1800E0057560018011EF30E20D0562AE62EEFF
:101A2800C394044003E4F562755E00755F0222E426
:091A38008003EF7004F55EF55F18
:011A41002282
:101BD800E562702B121E67E54DC4540FF519E54DEB
:101BE800540FF51AE54CC4540FF51BE54C540FF58A
:101BF8001CE54BC4540FF51DE54B540FF51E22E5AB
:101C080021B40118E4F521752001851922851A23CC
:0D1C1800851B24851C25851D26851E272281
:10194C00E50E700B121B7E852A0A852B0B050E05E6
:10195C000DE50D7002050CAE0CC39464EE940040C2
:10196C005AE4F50CF50D121B7E852A08E508C39583
:10197C000A4008E508950AF5418007C3E50A950871
:10198C00F541E541D39414500985081785080A756B
:10199C002901852B09E509C3950B4008E509950B31
:1019AC00F5418007C3E50B9509F541E541D3940357
:0B19BC00500985091885090B752801EA
:0119C70022FD
:1014DD00E529B4011AE4F529851741E54175F00AAE
:1014ED0084F512E54175F00A8485F013751001E558
:1014FD0028B4011AE4F528851841E54175F00A84F0
:10150D00F514E54175F00A8485F015751101E56254
:10151D006401705DE5207003752101E561B4012959
:10152D00E4F5610523AF23EFC3940A40050522E4DA
:10153D00F523E5236404600302169FE5226402602F
:10154D000302169FF522F52322E560640160030274
:10155D00169FF5601523AF23EFC394FF50030216BA
:10156D009F1522AF22EF94FF4003752202752303CE
:10157D0022E5626402704DE561B40120E4F5610578
:10158D0025AF25EFC3940A500302169F0524AF24FF
:10159D00EF94064003E4F524E4F52522E5606401AB
:1015AD00600302169FF5601525AF25EFC394FF501C
:1015BD000302169F1524AF24EF94FF4003752405F5
:1015CD0075250922E56264037050750F01E561B45C
:1015DD000120E4F5610527AF27EFC3940A500302FC
:1015ED00169F0526AF26EF94064003E4F526E4F595
:1015FD002722E5606401600302169FF5601527AF91
:10160D0027EFC394FF500302169F1526AF26EF94C4
:10161D00FF400375260575270922E50F64017072D9
:10162D00F50FF520E526C454F04527F542E524C411
:10163D0054F04525F543E522C454F04523F544E423
:10164D00FD7F8E121D28901ECAE493FFAD42121D20
:10165D0028901ECBE493FFAD43121D28901ECCE4C1
:10166D0093FFAD44121D28901ECDE493FFAD4E1295
:10167D001D28901ECEE493FFAD4F121D28901ECF56
:10168D00E493FFAD50121D287D807F8E121D2875AD
:02169D00160134
:01169F002228
:1018CC00021E02E493A3F8E493A34003F68001F212
:1018DC0008DFF48029E493A3F85407240CC8C3331D
:1018EC00C4540F4420C8834004F456800146F6DFEC
:1018FC00E4800B0102040810204080901EB5E47EA9
:10190C00019360BCA3FF543F30E509541FFEE493E0
:10191C00A360010ECF54C025E060A840B8E493A3A7
:10192C00FAE493A3F8E493A3C8C582C8CAC583CAD2
:10193C00F0A3C8C582C8CAC583CADFE9DEE780BE8A
:011EC200001F
:10182C00BB010CE58229F582E5833AF583E0225071
:10183C0006E92582F8E622BBFE06E92582F8E222BB
:0D184C00E58229F582E5833AF583E49322D5
:10185900EF8DF0A4A8F0CF8CF0A428CE8DF0A42EA3
:02186900FE225D
:10186B00BC000BBE0029EF8DF084FFADF022E4CC61
:10187B00F875F008EF2FFFEE33FEEC33FCEE9DEC2A
:10188B00984005FCEE9DFE0FD5F0E9E4CEFD22ED70
:10189B00F8F5F0EE8420D21CFEADF075F008EF2FBA
:1018AB00FFED33FD4007985006D5F0F222C398FDAB
:0518BB000FD5F0EA2248
:00000001FF
