:030000000214C324
:0C14C300787FE4F6D8FD75815702150A09
:03000300DFFE22FB
:101A2700D3EF9400EE940040147D6E7C00ED1D70A2
:0D1A3700011CED4C70F7EF1F70E61E80E300
:011A4400227F
:101AAE00D2967F02120003C2967F147E00121A276E
:071ABE00D2967F1E02000317
:101A4500E4FEFD3096FD7F08120003EE25E0FE3032
:0C1A550096010E2096FD0DBD08E9AF06BD
:011A61002262
:10170700121AAE2096533096FD7F28120003121A44
:10171700458F38121A45A907121A45AC07121A4500
:10172700AB07121A458F397F19120003E9FFE53815
:101737002FFFE433FEEC7583002FFFE5833EFEEBBE
:101747002FFFE5833EFEE539B5070EE583B50609AC
:0917570085382089228C218B23A6
:011760002266
:1009E6000003050911FF118905C300E000F000F8B6
:1009F600000000000000004428FF11AA4400000087
:100A060000000000000000000000000000000000E0
:100A160000000000000000000000000000000000D0
:100A260000000000000000000000000000000000C0
:100A3600000000000000000000008301384482929C
:100A460092740183000000000000007C44FF017DD9
:100A56007D7D017D7D7D7D017D7D7D7D7D01FF002F
:100A6600000000000001000100010001000100017A
:100A7600000000000000000000010100000000006E
:100A86000000000000000000000000000000000060
:100A96000000000000000000000000000000000050
:100AA6000000000000000000000000000000000040
:100AB600000000000000000000000101000000002E
:100AC600000001010000000000000000000101011B
:100AD6000101010101010101010101010101010001
:100AE6000000000000000000000000000000000000
:100AF6000000000000000000000000003F3F03036C
:100B0600F31311111111111101F11161810101018B
:100B1600816111F1010101014141F101010101016F
:100B2600C1211111111121C1010101014141F1013F
:100B36000101010101010101011111111111D3334B
:100B460003033F3F0000000000000000000000001B
:100B5600000000000000000000000000000000008F
:100B6600000000000000000000000000000000007F
:100B7600000000000000000000000000E0E00000AF
:100B86007F01010101010100007F00000106180636
:100B96000100007F0000000040407F404000000050
:100BA6001F2040404040201F0000000040407F4082
:100BB6004000000000600000000040300C03000010
:100BC6000000E0E00000000000000000000000005F
:100BD600000000000000000000000000000000000F
:100BE60000000000000000000000000000000000FF
:100BF60000000000000000000000000007070606D5
:100C0600060604040484444444840404844444449A
:100C16008404040484C4040404048444444484040E
:100C260004040404844444448404040404048444FE
:100C360044448404048444444484040404040606AA
:100C46000606070700000000000000000000000084
:100C5600000000000000000000000000000000008E
:100C6600000000000000000000000000000000007E
:100C7600000000000000000000000000000000006E
:100C86000000000000101814121100000F101010C0
:100C96000F000000101F10000000081012120D00B7
:100CA600001800000D1212120D0000180000101896
:100CB6001412110000101814121100000000000098
:100CC600000000000000000000000000000000001E
:100CD600000000000000000000000000000000000E
:100CE60000000000000000000000000000000000FE
:100CF60000000000000000000000000000000000EE
:100D060000000000000000000000000000000000DD
:100D160000000000000000000000000080808080CD
:100D260080808080000000000000000000000000BD
:100D360000000000000000000000000000000000AD
:100D4600000000000000000000000000000000009D
:100D5600000000000000000000000000000000008D
:100D6600007F030C300C037F0000385454580000F9
:100D76007C04047800003C40407C00000000000039
:100D8600000000000000000000000000000000005D
:100D9600000000000000000000000000FFAAAAAA50
:100DA600280800FF0000000000000000000000000E
:100DB600000000000000000000000000000000002D
:100DC6000000000000000000007F030C300C037FD1
:100DD6000000264949493200007F020408107F00BE
:100DE6000003050911FF118905C300E000F000F8B2
:100DF600000000000000004428FF11AA4400000083
:100E060000000000000000000000000000000000DC
:100E160000000000000000000000000000000000CC
:100E260000000000000000000000000000000000BC
:100E36000000000000000000000083013844829298
:100E460092740183000000000000007C44FF017DD5
:100E56007D7D7D017D7D7D7D017D7D7D7D01FF002B
:100E66000000000000010001000100010001000176
:100E7600000000000000000000010100000000006A
:100E8600000000000000000000000000000000005C
:100E9600000000000000000000000000000000004C
:100EA600000000000000000000000000000000003C
:100EB600000000000000000000000101000000002A
:100EC6000000010100000000000000000001010117
:100ED60001010101010101010101010101010100FD
:100EE60000000000000000000000000000000000FC
:100EF600000000000000000000000000000000F8F4
:100F06000808080808080800F81860800000008033
:100F16006018F80000002020F8000000000000E043
:100F2600100808080810E00000002020F800000063
:100F36000000000000000000000808080808886893
:100F46001800000000000000000000000000000083
:100F5600000000000000000000000000000000008B
:100F6600000000000000000000000000000000007B
:100F76000000000000000000000000000000007FEC
:100F860001010101010100007F00000106180601B0
:100F960000007F00000040407F4040000000001F2E
:100FA6002040404040201F00000040407F4040005D
:100FB600000000006000000000000060180601004C
:100FC600000000000000000000000000000000001B
:100FD600000000000000000000000000000000000B
:100FE60000000000000000000000000000000000FB
:100FF60000000000000000000000000000000000EB
:10100600000000000040202020C00000E02020203A
:10101600E000000040E00000000060202020E0002A
:1010260000000000E0202020E0000000000040203A
:101036002020C0000040202020C00000000000004A
:10104600000000000000000000000000000000009A
:10105600000000000000000000000000000000008A
:10106600000000000000000000000000000000007A
:10107600000000000000000000000000000000006A
:1010860000000000000C0A0A090C00000F080808FE
:101096000F000000080F080000000C0809090E00E8
:1010A600000C00000F0909090F00000C00000C0AD3
:1010B6000A090C00000C0A0A090C000000000000D6
:1010C600000000000000000000000000000000001A
:1010D600000000000000000000000000000000000A
:1010E60000000000000000000000000000000000FA
:1010F60000000000000000000000000000000000EA
:1011060000000000000000000000000000000000D9
:1011160000000000000000000000000080808080C9
:1011260080808080000000000000000000000000B9
:1011360000000000000000000000000000000000A9
:101146000000000000000000000000000000000099
:101156000000000000000000000000000000000089
:10116600007F030C300C037F0000385454580000F5
:101176007C04047800003C40407C00000000000035
:101186000000000000000000000000000000000059
:10119600000000000000000000000000FFAAAAAA4C
:1011A600280800FF0000000000000000000000000A
:1011B6000000000000000000000000000000000029
:1011C6000000000000000000007F030C300C037FCD
:1011D6000000264949493200007F020408107F00BA
:1011E60012137F1219977B04E4FDFF12184B7B053F
:1011F600E4FD7F1012184B7B3AE4FD7F2012163F68
:101206007B2DE4FD7F3012163F7B2DE4FD7F3812E7
:10121600163F7B3AE4FD7F4012163F7B2DE4FD7FAF
:101226004812163F7B2DE4FD7F5012163F7B3AE4B1
:10123600FD7F5812163F7B2DE4FD7F6012163F7B23
:101246002DE4FD7F6812163FE4FB7D03FF12184B69
:101256007B017D037F1012184B7B3A7D037F2012A2
:10126600163F7B2D7D037F3012163F7B2D7D037F3E
:101276003812163F7B067D037F4812184B7B027D92
:1012860006E4FF12184B7B037D067F1012184B7B7A
:101296003A7D067F2012163F7B2D7D067F30121683
:1012A6003F7B2D7D067F3812163F7B527D067F4899
:0C12B60012163F7B487D067F5002163F59
:1012C200E517FB7A00753B01753C10E4FD7F301297
:1012D20015CBE518FB7A00753B01753C10E4FD7FE8
:1012E200381215CBE519FB7A00753B01753C10E409
:1012F200FD7F481215CBE51AFB7A00753B01753C60
:1013020010E4FD7F501215CBE51BFB7A00753B0103
:10131200753C10E4FD7F601215CBE51CFB7A00756D
:101322003B01753C10E4FD7F681215CBE51060248B
:10133200E513FB7A00753B01753C107D037F30128B
:1013420015CBE514FB7A00753B01753C107D037FDC
:10135200381215CBE50F6024E511FB7A00753B01CD
:10136200753C107D067F301215CBE512FB7A0075B5
:0D1372003B01753C107D067F381215CB2223
:0E1B310081838587898B8D80828486888A8C4B
:091B230007410000120705061637
:10190400C2B500C29500D2B500E4FEEF1392B4EF65
:10191400C313FFD29500C295000EBE08EEE4FEED9F
:101924001392B4EDC313FDD29500C295000EBE0808
:04193400EEC2B5004A
:01193800228C
:10180100C2B500C29500D2B500E4FDEF1392B4EF6A
:10181100C313FFD29500C295000DBD08EE00E4FD93
:10182100A2B4E433FFC43333335480FCEEC3134C0E
:10183100FED29500C295000DBD08E5C2B500D29556
:0918410000C2B400D2B400AF06ED
:01184A00227B
:1019E400E4FD7F8E121904E4FCEC901B3893FF7421
:1019F400412CF8E6FD1219040CBC07ED7D807F8EA6
:031A0400021904C0
:101AC500E4FBEB901B3193FF12180174412BF8A630
:051AD500070BBB07ED4B
:011ADA0022E9
:101B1300438901758CD8758AF0D28CD2A9D2AF22B1
:0B1B3F00438920E4F58AF58CD28C224B
:1017B400AB8A7A00D3EF9400EE64809480403DA914
:1017C4008AE97C00FD9BEA6480F8748098400AED05
:1017D4009BF554EC9AF5538014C3E49BF582740191
:1017E4009AF583E5822DF554E5833CF553C3EF95D3
:0C17F40054FFEE9553FEAA04AB0580B82C
:0118000022C5
:021ADB008F3743
:101ADD00E4FFAE371537EE600A1FEF60F50000002A
:031AED000080F680
:011AF00022D3
:101A6200C280C2861211E67FC8121ADB1212C2129B
:0A1A7200196C12154F12193980F299
:03000B000219BE19
:1019BE00C0E0C0D075D000C007758CD8758AF00510
:1019CE0056AF56EFC3940A4006755600755501D0B2
:0619DE0007D0D0D0E0327A
:10000E000000000000000000002F000000000700AC
:10001E00070000147F147F1400242A7F2A12006226
:10002E0064081323003649552250000005030000D2
:10003E0000001C224100000041221C000014083E5A
:10004E0008140008083E0808000000A06000000820
:10005E000808080800006060000000201008040274
:10006E00003E5149453E0000427F40000042615132
:10007E004946002141454B31001814127F100027CC
:10008E0045454539003C4A4949300001710905038F
:10009E0000364949493600064949291E00003636C0
:1000AE000000000056360000000814224100001423
:1000BE001414141400004122140800020151090600
:1000CE0000324959513E007C1211127C007F494981
:1000DE004936003E41414122007F4141221C007FB2
:1000EE0049494941007F09090901003E4149497AC0
:1000FE00007F0808087F0000417F4100002040413A
:10010E003F01007F08142241007F40404040007FA5
:10011E00020C027F007F0408107F003E4141413EE9
:10012E00007F09090906003E4151215E007F091931
:10013E0029460046494949310001017F0101003F2E
:10014E004040403F001F2040201F003F4038403FAE
:10015E000063140814630007087008070061514912
:10016E00454300007F41410000552A552A550000A5
:10017E0041417F0000040201020400404040404023
:10018E00000001020400002054545478007F4844BB
:10019E00443800384444442000384444487F0038F2
:1001AE005454541800087E0901020018A4A4A47C1B
:1001BE00007F080404780000447D400000408084E5
:1001CE007D00007F102844000000417F4000007C2D
:1001DE0004180478007C0804047800384444443839
:1001EE0000FC242424180018242418FC007C080485
:1001FE00040800485454542000043F444020003C5E
:10020E004040207C001C2040201C003C4030403CE4
:10021E00004428102844001CA0A0A07C0044645474
:10022E004C441414141414140000000000000000B8
:10023E000000000000000000000000F800000000B8
:10024E00000000333000000000100C06100C0600F9
:10025E00000000000000000040C07840C078400060
:10026E00043F04043F040400007088FC08300000C2
:10027E00001820FF211E0000F008F000E01800001A
:10028E0000211C031E211E0000F0088870000000D3
:10029E001E2123241927211010160E000000000025
:1002AE000000000000000000000000E01804020042
:1002BE00000000071820400000020418E0000000B3
:1002CE000040201807000000404080F080404000B1
:1002DE000202010F01020200000000F00000000007
:1002EE000101011F010101000000000000000000DB
:1002FE0080B0700000000000000000000000000050
:10030E0000010101010101010000000000000000D8
:10031E000030300000000000000000008060180473
:10032E00006018060100000000E010080810E00050
:10033E00000F102020100F00001010F80000000019
:10034E000020203F20200000007008080888700060
:10035E0000302824222130000030088888483000E0
:10036E000018202020110E000000C02010F8000000
:10037E0000070424243F240000F808888808080099
:10038E000019212020110E0000E0108888180000AE
:10039E00000F112020110E0000380808C838080080
:1003AE000000003F00000000007088080888700000
:1003BE00001C222121221C0000E010080810E00081
:1003CE000000312222110F00000000C0C00000000A
:1003DE00000000303000000000000080000000002F
:1003EE000000806000000000000080402010080027
:1003FE0000010204081020004040404040404000F0
:10040E0004040404040404000008102040800000CA
:10041E000020100804020100007048080808F000CF
:10042E000000003036010000C030C828E810E0009F
:10043E000718272423140B000000C038E00000002A
:10044E00203C23020227382008F888888870000094
:10045E00203F202020110E00C03008080808380068
:10046E00071820202010080008F808080810E000DF
:10047E00203F202020100F0008F88888E808100080
:10048E00203F20202320180008F88888E808100054
:10049E00203F200003000000C0300808083800008C
:1004AE0007182020221E020008F808000008F8088D
:1004BE00203F210101213F20000808F80808000014
:1004CE000020203F2020000000000808F808080047
:1004DE00C08080807F00000008F888C028180800BF
:1004EE00203F20012638200008F8080000000000F8
:1004FE00203F20202020300008F8F800F8F80800EF
:10050E00203F003F003F200008F830C00008F808E8
:10051E00203F200007183F00E01008080810E000F8
:10052E000F10202020100F0008F808080808F0000F
:10053E00203F210101010000E01008080810E00032
:10054E000F18242438504F0008F8888888887000C7
:10055E00203F2000030C3020007088080808380067
:10056E000038202121221C00180808F8080818005D
:10057E000000203F2000000008F808000008F808DE
:10058E00001F202020201F000878880000C838088F
:10059E00000007380E010000F80800F80008F80007
:1005AE00033C0700073C03000818688080681808A1
:1005BE0020302C03032C30200838C800C83808001F
:1005CE000000203F2000000010080808C83808006E
:1005DE002038262120201800000000FE0202020012
:1005EE000000007F40404000000C30C000000000C2
:1005FE00000000010638C00000020202FE000000EA
:10060E00004040407F00000000000402020204008F
:10061E0000000000000000000000000000000000CC
:10062E0080808080808080800002020400000000B4
:10063E0000000000000000000000808080800000AC
:10064E000019242222223F2008F80080800000009A
:10065E00003F112020110E0000000080808000005D
:10066E00000E112020201100000000808088F8006C
:10067E00000E112020103F2000008080808000009E
:10068E00001F222222221300008080F08888881802
:10069E000020203F2020000000008080808080000D
:1006AE00006B94949493600008F8008080800000A2
:1006BE00203F210000203F2000809898000000007D
:1006CE000020203F202000000000008098980000AD
:1006DE0000C08080807F000008F8000080808000CD
:1006EE00203F24022D302000000808F800000000F2
:1006FE000020203F202000008080808080808000AD
:10070E00203F20003F20003F80800080808000003E
:10071E00203F210000203F200000808080800000CC
:10072E00001F202020201F008080008080000000FD
:10073E0080FFA12020110E0000000080808080002C
:10074E00000E112020A0FF8080808000808080001D
:10075E0020203F212000010000008080808080004A
:10076E000033242424241900008080E080800000BF
:10077E000000001F2020000080800000008080000C
:10078E00001F202020103F2080808000008080806D
:10079E0000010E30080601008080008000808080FD
:1007AE000F300C030C300F00008080008080800022
:1007BE000020312E0E31200080808000008080804D
:1007CE0080818E70180601000080808080808000FD
:1007DE000021302C2221300000000000807C02021B
:1007EE0000000000003F404000000000FF0000003D
:1007FE0000000000FF0000000002027C80000000EC
:10080E000040403F00000000000601010202040407
:10081E0000000000000000001060028C0000FE923C
:10082E0092929292FE000000000000000000000074
:10083E00000000000000000004047E01407E4242E1
:10084E007E427E42427E400000000000000000001A
:10085E0000000000000000000000FC242424FC2501
:10086E002624FC24242404000000000000000000C4
:10087E00000000000000000040308F80844C5525A1
:10088E002525554C808080000000000000000000EF
:10089E0000000000000000001060028C00FE92922A
:1008AE0092929292FE0000000000000000000000F4
:1008BE00000000000000000004047E014448507F48
:1008CE0040407F50484440000000000000000000FF
:1008DE0000000000000000000000FC242424FC2581
:1008EE002624FC2424240400000000000000000044
:1008FE00000000000000000040308F80844C552521
:10090E002525554C8080800000000000000000006E
:10091E00000000000000000000FC848484FC001035
:10092E0010101010FF10100000000000000000005A
:10093E000000000000000000003F1010103F0000FB
:10094E00010640807F000000000000000000000053
:10095E00000000000000000000F8010600F0121276
:10096E0012F2020202FE0000000000000000000071
:10097E00000000000000000000FF0000001F111129
:10098E00111F0040807F00000000000000000000EA
:10099E000000000000000000060909E6F80C040241
:1009AE0002020202041E000000000000000000000F
:1009BE000000000000000000000000071F30204073
:1009CE0040404040201000000000000000000000E9
:0809DE00000000000000000011
:101A7C00EF4E60157D087C07ED1DAA0470011C4A11
:091A8C0070F6EF1F70EA1E80E7FE
:011A9500222E
:1018CB00F583E5822CF582E43583F583E493FF7D84
:0118DB00010B
:1018DC00ED6004D2938002C293C294E4FEC290EFF6
:1018EC0030E704D2918002C291D290EF25E0FF0E36
:0718FC00BE08EAD294D2936A
:0119030022C1
:101A0700AC07ED24B0FFE4FD1218DCEC54F0C4542D
:101A17000F4410FF1218DCEC540F4401FF0218DCCE
:101AF100E4FD7F8D1218DC7F141218DC7FAF021811
:011B0100DC07
:101B0200E4FD7F8D1218DC7F101218DC7FAE021804
:011B1200DCF6
:10199700E4FCEC24B0FFE4FD1218DCE4FF1218DCD1
:1019A7007F101218DCE4FB7D01E4FF1218DC0BBB8F
:0619B70080F50CBC08DC09
:0119BD002207
:06163F00AA07A905AF0394
:10164500E4FCEF24E0FBEAD3947F4004E4FA0909C3
:10165500AF02AD01121A07E4FC75F010EBA42CF5EE
:1016650082E435F0F583E5822436F582E58334029C
:101675001218D50CBC08E2AF02E904FD121A07E402
:10168500FC75F010EBA42CF582E435F0F583E582CA
:10169500243EF582E58334021218D50CBC08E222FB
:041A96008F40A905CF
:101A9A007F017E00AD0119ED6009AD407C00121492
:031AAA005C80F16C
:011AAD002216
:0815CB008F378D388A398B3A05
:1015D300E4F53FF53DE53DC3953B505FC3E53B95E2
:1015E3003D14FD7F0A121A96AC39AD3ACFCDCFCE5A
:1015F300CCCE12146E7C007D0A12146E8D3EE53F34
:101603007020E53B14FFE53DC39F5016E53E700F88
:10161300E53CC313853DF0A42537FF7B208013757C
:101623003F01E53CC313853DF0A42537FFE53E2488
:0B16330030FBAD3812163F053D809AD9
:01163E002289
:0A188E008F488D498B4A8A4B894C24
:10189800E4F54DAB4AAA4BA94C854D8275830012DD
:1018A800142FFB601DAD49AF4812163F7408254838
:1018B800F548D394784007E4F54805490549054DAE
:0218C80080D1CD
:0118CA0022FB
:04184B00AA07A9053A
:10184F00E4F537121A07E4FC75F040EBA42426F5F3
:10185F0082E5F034081218CB05370CBC10EAAF0242
:10186F00E904FD121A07E4FC75F040EBA42446F5D9
:0E187F0082E5F034081218CB05370CBC10EAD5
:01188D002238
:0416A5008F2D8B2FCB
:1016A900E4F534F535E5305407700BE530131313C1
:1016B900541FF536800AE530131313541F04F53609
:1016C9008D36E536C395305034AD36AF2D121A0735
:1016D900AC2DECC3952F5021AB31AA32A933053576
:1016E900E535AE347002053414F5828E8312142F59
:0D16F900FF7D011218DC0C80D9053680C57C
:0117060022C0
:10137F00D2927F647E00121A7CC2927F647E00122A
:10138F001A7CD292E4FD7FAE1218DCE4FF1218DC57
:10139F007F101218DC7F401218DC7F811218DC7F5F
:1013AF00CF1218DC7FA11218DC7FC81218DC7FA6C1
:1013BF001218DC7FA81218DC7F3F1218DC7FD312C3
:1013CF0018DCE4FF1218DC7FD51218DC7F801218AE
:1013DF00DC7FD91218DC7FF11218DC7FDA1218DCEF
:1013EF007F121218DC7FDB1218DC7F401218DC7FB3
:1013FF00201218DC7F021218DC7F8D1218DC7F148C
:10140F001218DC7FA41218DC7FA61218DC7FAF1233
:10141F0018DC7FAF1218DC121997E4FDFF021A07D0
:041B2C00024E000065
:10176100AF57E54E704CE54F14601114603D2402F3
:101771007040EF603D754E00754F0122EF602930DA
:10178100E105755101801AEF30E0057550018011B6
:10179100EF30E20D0552AE52EEC394044003E4F57E
:1017A10052754E00754F0222E48003EF7004F54E2E
:0217B100F54FF2
:0117B3002213
:10196C00121AC5E543C4540FF517E543540FF51887
:10197C00E542C4540FF519E542540FF51AE541C47C
:0B198C00540FF51BE541540FF51C2221
:10154F00E50E700B12170785200A85210B050E0576
:10155F000DE50D7002050CAE0CC39464EE940040C3
:10156F005AE4F50CF50D121707852008E508C39509
:10157F000A4008E508950AF5378007C3E50A95087C
:10158F00F537E537D39414500985081585080A7582
:10159F001F01852109E509C3950B4008E509950B46
:1015AF00F5378007C3E50B9509F537E537D3940277
:0B15BF00500985091685090B751E01F7
:0115CA0022FE
:10193900E51FB40114AF15EF75F00A84F511EF75C1
:10194900F00A8485F012750F01E51EB40114AF1673
:10195900EF75F00A84F513EF75F00A8485F01475B4
:0219690010016B
:01196B002259
:1014CF00021A62E493A3F8E493A34003F68001F2B7
:1014DF0008DFF48029E493A3F85407240CC8C3331E
:1014EF00C4540F4420C8834004F456800146F6DFED
:1014FF00E4800B0102040810204080901B23E47E3F
:10150F00019360BCA3FF543F30E509541FFEE493E1
:10151F00A360010ECF54C025E060A840B8E493A3A8
:10152F00FAE493A3F8E493A3C8C582C8CAC583CAD3
:10153F00F0A3C8C582C8CAC583CADFE9DEE780BE8B
:011B300000B4
:10142F00BB010CE58229F582E5833AF583E0225072
:10143F0006E92582F8E622BBFE06E92582F8E222BC
:0D144F00E58229F582E5833AF583E49322D6
:10145C00EF8DF0A4A8F0CF8CF0A428CE8DF0A42EA4
:02146C00FE225E
:10146E00BC000BBE0029EF8DF084FFADF022E4CC62
:10147E00F875F008EF2FFFEE33FEEC33FCEE9DEC2B
:10148E00984005FCEE9DFE0FD5F0E9E4CEFD22ED71
:10149E00F8F5F0EE8420D21CFEADF075F008EF2FBB
:1014AE00FFED33FD4007985006D5F0F222C398FDAC
:0514BE000FD5F0EA2249
:00000001FF
